:020000040800F2
:10000000D06A0020450100081D490008792D00082C
:10001000613400084D110008C5A000080000000070
:10002000000000000000000000000000514E000829
:1000300095130008000000004549000841610008D0
:100040005F0100085F0100085F010008D54A000851
:100050005F0100085F0100085F0100085F01000800
:100060005F0100085F0100085F0100085F010008F0
:100070005F0100085F0100085F010008F11200083D
:100080005F0100085F0100089D0900085F0100088A
:100090005F0100085F0100085F0100085F010008C0
:1000A0005F0100085F0100085F0100085F010008B0
:1000B0005F0100085F0100085F0100085F010008A0
:1000C0005F0100085F0100085F0100085F01000890
:1000D0005F0100085F0100085F0100085F01000880
:1000E0005F0100085F0100085F0100085F01000870
:1000F0005F0100085F0100085F0100085F01000860
:100100005F0100085F0100085F0100085F0100084F
:100110005F0100085F0100082562000845620008D1
:100120005F0100085F0100085F0100085F0100082F
:10013000DFF80CD000F0FCFB004800475138010804
:10014000D06A00200648804706480047FEE7FEE7E1
:10015000FEE7FEE7FEE7FEE7FEE7FEE7FEE7FEE777
:10016000456100083101000840EA01039B0703D004
:1001700009E008C9121F08C0042AFAD203E011F8E6
:10018000013B00F8013B521EF9D27047D2B201E0A8
:1001900000F8012B491EFBD270470022F6E710B58C
:1001A00013460A4604461946FFF7F0FF204610BDE5
:1001B00030B504460020034600E05B1C934203D2A6
:1001C000E05CCD5C401BF8D030BD30B503461D78F7
:1001D0003DB10A4612F8014B1CB1AC42FAD15B1C8E
:1001E000F5E7181A30BD30B50546002008E00A468C
:1001F00002E0A34207D0521C1378002BF9D1401C17
:100200002C5C002CF3D130BD2DE9FE4F804681EAF5
:100210000300C00F0C46009021F0004123F0004580
:10022000B8EB0200A94105D24046214690461C4643
:100230000B46024623F00040104347D0270DC7F37A
:100240000A00C3F30A510290401A019040286BDA69
:10025000C3F3130040F4801B0098924620B10023A2
:10026000D2EB030A63EB0B0B01985946C0F1400235
:10027000504600F048FA06460D4650465946019A47
:1002800000F060FA10EB08006141002487EA115287
:1002900084EAE7731A4340D0009A62B3019A012AB4
:1002A0004FEA075215DC001B61EB02014FF00042E0
:1002B00002EA0752CDE90042001C41F580113246A6
:1002C0002B4600F0B5FA03B0BDE8F08F404621465A
:1002D000F9E7001B61EB0201001C41F580130018D7
:1002E0005B412018A2F5001747EB030140EAD570E7
:1002F000B6196D4111E06D084FEA360645EAC07542
:100300004FEA0752001B61EB0201001C41F580110E
:1003100049084FEA30000019514132462B4603B0DC
:10032000BDE8F04F00F075BA0098012240000023AC
:10033000D0EB020263EBE073009821464FEAE074D1
:10034000B8EB000061EB0401E9E783F000435BE7F1
:1003500081F0004158E72DE9FE4F81EA030404F0E3
:10036000004421F0004100944FF0000B23F00043C3
:1003700050EA01045ED052EA03045BD0C3F30A548E
:10038000C1F30A552C44A4F2F3340194A0FB0254A7
:10039000C1F3130141F48011C3F3130343F4801339
:1003A00001FB024400FB034E840A970A44EA81548D
:1003B00047EA8357A4FB076802958D0A05FB07856A
:1003C0004FEA932C04FB0C542705029D4FEA065874
:1003D00047EA1637B5EB08056EEB070C870E920E51
:1003E00047EA811742EA8312A7FB0201B6EB0B0131
:1003F00064EB00042B0D43EA0C335E1844EB1C50F5
:10040000DA465146E7FB0201C5F313044FEA0B330A
:1004100043EA14534FEA0432019C43EA0603A4F171
:100420000C040294009CCDE900B400F001FA03B082
:10043000BDE8F08F00200146F9E72DE9F04D81EA93
:10044000030404F0004B21F0004514464FF0000A6D
:1004500023F0004150EA050220D054EA01021DD0E9
:10046000C5F30A570246C5F31303C1F31300C1F3E2
:100470000A5640F4801543F48013A7EB0608101BBE
:10048000D64608F2FD3873EB050002D308F10108E7
:1004900001E092185B41B8F1000F03DA0020014639
:1004A000BDE8F08D00204FF48011064684460EE032
:1004B000171B73EB050705D3121B63EB05030643FC
:1004C0004CEA010C49084FEA300092185B4150EAAF
:1004D0000107EDD152EA030012D082EA040083EA58
:1004E0000501084305D0101BAB4106D201220023B1
:1004F00006E000224FF0004302E06FF001025310CB
:100500001AEB06004CEB085110EB0A0041EB0B0113
:10051000BDE8F04D00F07DB930B5041E71F1000466
:1005200004DB4FF00044404264EB0101141E73F100
:10053000000405DB1C464FF00043524263EB04030A
:10054000801A994101D3012030BD002030BD30B563
:10055000041E71F1000404DB4FF00044404264EBE0
:100560000101141E73F1000405DB1C464FF000432B
:10057000524263EB0403101A8B4101D2012030BDBB
:10058000002030BD30B5041E71F1000404DB4FF0D3
:100590000044404264EB0101141E73F1000405DBCA
:1005A0001C464FF00043524263EB0403101A8B4188
:1005B00001D3012030BD002030BD0EB5C10F80EA4F
:1005C000E0700844CA07002140F233438DE80E0072
:1005D0000A460B4600F02CF903B000BD70B5C1F31C
:1005E0000A5201F000450024C1F3130140F2FF3329
:1005F00041F480119A4201DA002070BD40F2334389
:100600009A42A2F2334203DC524200F08BF800E03F
:1006100090402C43F1D0404270BD00F0004230F0D9
:1006200000400AD0C10D01F56071C0F3160042EA26
:100630000151C2084007114370470020014670472E
:1006400001F0004330B421F0004150EA010206D02D
:100650000A0DA2F56072C1F31301002A02DC30BC5E
:1006600000207047440F44EAC104C100E01830BCC8
:1006700000EBC25000F078B830B50B4601460020C0
:100680002022012409E021FA02F59D4205D303FA54
:1006900002F5491B04FA02F52844151EA2F10102D5
:1006A000F1DC30BD2DE9F05F0546002092469B4607
:1006B00088460646814640241BE028464146474678
:1006C000224600F02FF853465A46C01A914110D3E3
:1006D00011461846224600F016F82D1A67EB01085D
:1006E0004F4622460120002100F00DF817EB0009CB
:1006F0004E41201EA4F10104DFDC484631462A4663
:100700004346BDE8F09F202A04DB203A00FA02F1BC
:10071000002070479140C2F1200320FA03F31943EF
:1007200090407047202A04DB203A21FA02F0002191
:10073000704721FA02F3D040C2F1200291400843F1
:1007400019467047202A06DBCB17203A41FA02F0FF
:1007500043EAE07306E041FA02F3D040C2F120021E
:1007600091400843194670470029A8BF7047401CB4
:10077000490008BF20F00100704710B4B0FA80FCB7
:1007800000FA0CF050EA010404BF10BC704749B1F4
:10079000CCF1200421FA04F411FA0CF118BF012164
:1007A00021430843A3EB0C01CB1D4FEA00614FEA44
:1007B000102042BF002010BC704700EBC350104413
:1007C0000029A4BF10BC7047401C490008BF20F09E
:1007D000010010BC704710B541000CD0C0F3C751E8
:1007E000962908DC7E2909DC06DB410204D000F0F2
:1007F000004040F07E5010BD002010BDC1F19604B5
:10080000C4F1200100FA01F1E040FFF7ADFFA04084
:1008100010BD10B5141E73F1000408DA401C41F13C
:10082000000192185B411A4301D120F0010010BD74
:100830002DE9F04D92469B4611B1B1FA81F202E0EA
:10084000B0FA80F220329046FFF75DFF04460F4673
:1008500040EA0A0041EA0B0153465A46084313D0C6
:10086000114653EA010019D0C8F140025046FFF783
:1008700059FF05460E46504659464246FFF743FF8C
:10088000084305D0012004E020463946BDE8F08D3C
:100890000020054346EAE0762C4337430A98630577
:1008A000E40AA0EB08000022FD0A44EA47540A309B
:1008B00002D500200146E9E7010510196941DDE98B
:1008C000084500196941BDE8F04DA2E7C1F30A529D
:1008D000C1F3130140F2FF3341F480119A4202DA6E
:1008E00000200146704740F233439A42A2F233425D
:1008F00002DC5242FFF716BFFFF705BF30B5041EFA
:1009000071F1000404DB4FF00044404264EB01014C
:10091000141E73F1000405DB1C464FF000435242E5
:1009200063EB0403994208BF904230BD002070473A
:100930001CB509480090094801900546009C06E056
:10094000E06840F0010394E8070098471034AC4297
:10095000F6D3FFF7F1FB0000E8240208082502089F
:1009600030B58C1810F8012B12F00F0301D110F8DC
:10097000013B120906D110F8012B03E010F8015BCE
:1009800001F8015B5B1EF9D101E001F8013B521E49
:10099000FBD1A142E6D3002030BD000080B542F279
:1009A0000040C4F20100022109F064FF28B1FFE712
:1009B0000020522100F010F8FFE742F20040C4F29C
:1009C0000100042109F056FF28B1FFE7002049216A
:1009D00000F002F8FFE780BD80B586B08DF8170003
:1009E0008DF816100020ADF81400ADF812009DF837
:1009F0001700002840F02F81FFE79DF816005228CD
:100A000040F09180FFE742F20040C4F201000AF09A
:100A10004DF8ADF81400BDF8140040F67751884247
:100A20000BDCFFE7BDF81400B0F53E6F05DBFFE718
:100A30000021084602F05EFB62E0BDF8140040F6BB
:100A4000D32188420CDCFFE7BDF8140040F63C11CE
:100A5000884205DBFFE70120002102F04BFB4EE05E
:100A6000BDF8140040F2467188420CDCFFE7BDF887
:100A7000140040F2AF51884205DBFFE7022000215D
:100A800002F038FB3AE0BDF81400B0F5667F0BDCED
:100A9000FFE7BDF81400B0F5007F05DDFFE7032098
:100AA000002102F027FB28E0BDF81400CC2805DC6B
:100AB000FFE70520002102F01DFB1DE0BDF814003A
:100AC00040F63371884216DBFFE7002001210391D5
:100AD00002F010FB0399084602F00CFB0399022078
:100AE00002F008FB0399032002F004FB03990520A0
:100AF00002F000FBFFE7FFE7FFE7FFE7FFE7FFE7A5
:100B000040F60000C4F2010001210AF06DFE01462A
:100B1000042002F0EFFA42F20040C4F20100022188
:100B200009F09EFE96E09DF81600492840F091805D
:100B3000FFE742F20040C4F201000290002109F0F8
:100B400041FEADF81200BDF8120000EE100AB8EE3A
:100B5000400A10EE100AFFF760FD41EC100B9FED0C
:100B6000401B53EC112B51EC100BFFF7F4FB41EC45
:100B7000100B51EC100B9FED3C0B53EC102BFFF7BF
:100B80005CFC41EC100B51EC100BFFF727FD40F221
:100B90009441C2F200010191888541F20000C4F243
:100BA000010008210AF03AFD0298012109F00AFE2D
:100BB000ADF81200BDF8120000EE100AB8EE400ABF
:100BC00010EE100AFFF729FD41EC100B9FED281BDA
:100BD00053EC112B51EC100BFFF7BDFB41EC100B4C
:100BE00051EC100B9FED240B53EC102BFFF725FC61
:100BF00041EC100B51EC100B9FED210B53EC102B23
:100C0000FFF702FB41EC100B51EC100B9FED1E0B9C
:100C100053EC102BFFF711FC41EC100B51EC100BB7
:100C20009FED1B0B53EC102BFFF7EEFA41EC100B72
:100C300051EC100BFFF704FD00EE100A13F090FCCE
:100C4000019A0146029882F82E10042109F008FE4C
:100C5000FFE7FFE7FFE706B080BD00BF00BF00BFB2
:100C6000000000000025B140000000000000E4404A
:100C70006666666666660AC0000000000000B04056
:100C8000333333333333F73F091B9E5E29CB703F39
:100C9000000000000000394080B586B042F20040FC
:100CA000C4F20100059009F065FC0020029009F0F3
:100CB00033FE05984FF480710122019209F01CFF68
:100CC0000299059809F042FC019A0598114609F02D
:100CD00005FC0299059802220392062309F02CFED6
:100CE000019905984FF4602209F0CAFC019A059811
:100CF000114609F089FC039A0598114609F0EEFBAC
:100D0000029905980C220723009309F0E3FC009B4D
:100D100001990598102209F0DDFC039905984FF41C
:100D2000E04209F0ADFC019A0399059809F06CFCCA
:100D3000029A1220032113F095FC0399059809F0FB
:100D40008FFD05980421049109F08AFD0399059807
:100D500009F05EFD0499059809F05AFD059809F01F
:100D600043FC05200AF024F9059809F099FB09F0E5
:100D700017FF06B080BD000080B582B043F670203A
:100D8000C2F20000807CADF80400BDF8042040F2FF
:100D90005811C2F20001CC2302FB03105A434078E1
:100DA000895C884204DBFFE700208DF8070008E13A
:100DB000BDF8040040F25812C2F20002CC2100FB40
:100DC0000120407810BBFFE7BDF8043043F67020E7
:100DD000C2F2000000EB4300808A40F25812C2F2D7
:100DE0000002CC2103FB01239880BDF8040000FB26
:100DF0000123587801305870BDF8040000FB012130
:100E00000020887001208DF80700DAE000208DF8BE
:100E10000300BDF8040040F25812C2F20002CC21D7
:100E200000FB0120407801388DF80300FFE79DF8B2
:100E30000300002800F1B180FFE7BDF8041043F67D
:100E40007020C2F2000000EB4100808A40F258138B
:100E5000C2F20003CC2201FB02319DF8032001EB1A
:100E600042018988884210D1FFE79DF80300BDF850
:100E7000041040F25813C2F20003CC2201FB0231ED
:100E8000887001208DF807009BE0BDF8041043F640
:100E90007020C2F2000000EB4100808A40F258133B
:100EA000C2F20003CC2201FB02319DF8032001EBCA
:100EB00042018988884210DAFFE7BDF8040040F259
:100EC0005812C2F20002CC2100FB01209DF8031051
:100ED00000EB41018888C88036E0BDF8041043F675
:100EE0007020C2F2000000EB4100808A40F25813EB
:100EF000C2F20003CC2201FB02319DF8032001EB7A
:100F00004201898888421EDDFFE7BDF8041043F6E0
:100F10007020C2F2000000EB4100808A40F25813BA
:100F2000C2F20003CC2201FB02319DF803C001EBA9
:100F30004C01C8809DF803000130BDF8041001FB8E
:100F40000231887029E0FFE7FFE79DF80300E8B968
:100F5000FFE7BDF8041043F67020C2F2000000EB7A
:100F60004100808A40F25813C2F20003CC2201FBF8
:100F700002319DF803C001EB4C0188809DF803000D
:100F8000BDF8041001FB0231887006E0FFE79DF810
:100F9000030001388DF8030049E7BDF8040040F272
:100FA0005812C2F20002CC2100FB01214878013026
:100FB00048709DF8040014F097FE01208DF807009A
:100FC000FFE79DF8070002B080BD000080B582B049
:100FD0008DF8070043F67020C2F20000C17C08447F
:100FE00090F821008DF806009DF807109DF8060086
:100FF00008448DF806009DF9062000200F210AF014
:1010000029FE8DF806009DF8060004F01BFC02B0D6
:1010100080BD000080B582B08DF8070043F67020D7
:10102000C2F2000010F812CF009000EB4C014B8888
:101030009DF9071040F23412C2F2000202EBCC021A
:1010400084449CF80AC032F81C2001FB0231ADF840
:101050000410027840F6F810C0F6020030F91200D1
:1010600040F6F011C0F6020131F91210BDF804206B
:101070000AF0F0FD01460098ADF80410407830B950
:10108000FFE7BDF80400042105F01EFC05E0BDF8F3
:101090000400012105F018FCFFE703F0AFFC02B0EB
:1010A00080BD000080B582B08DF8070043F6702047
:1010B000C2F200008178405C8DF806009DF90600C0
:1010C0009DF9071000EB4102002064210AF0C2FDE7
:1010D0008DF806009DF8060004F0AAFE02B080BD5F
:1010E00080B582B041F20000C4F2010000904FF4DC
:1010F000806101910AF092FA052009F059FF0098E9
:1011000001990AF093FA142009F052FF43F6B02037
:10111000C2F20000006890F82000012807D1FFE724
:101120004AF25E70C0F6010000F0F8F8FFE74AF2FC
:101130002C70C0F6010000F0F1F84AF23170C0F6F0
:10114000010000F0EBF802B080BD0000FFE7FEE711
:1011500082B001908DF80310019840899DF803102A
:10116000C84000F0030002B07047000081B000905A
:1011700000988088000B01B07047000081B000909B
:1011800000980078C0F3001001B0704780B582B0BD
:101190008DF807000020ADF804009DF80700014617
:1011A0000091012804D0FFE70098022806D00BE048
:1011B000002009F0AFFDADF8040005E0012009F0C2
:1011C000A9FDADF80400FFE7BDF8040002B080BD42
:1011D00080B584B009F044FD0020029038210191CF
:1011E00009F0E8FD029809F0CBFD0299084609F0E4
:1011F00005FE029809F074FD01990120039009F0A1
:10120000D9FD039809F0BCFD0299039809F0F6FD99
:10121000039809F065FD029809F02EFD039809F086
:101220002BFD04B080BD000080B586B08DF817009E
:10123000ADF814109DF8170001460391012804D061
:10124000FFE70398022834D048E0BDF8140020B925
:10125000FFE70020ADF8120020E0BDF81400FFF712
:10126000ACF941EC100B9FED1E1B53EC112B51EC14
:10127000100BFFF770F841EC100B51EC100B9FEDC9
:101280001A0B53EC102BFEF7BFFF41EC100B51EC87
:10129000100BFFF7A3F9ADF81200FFE7BDF812201D
:1012A00000210291084609F085FC029809F04EFDE4
:1012B00014E0BDF814200020009040F214510AF010
:1012C000C9FC0099ADF81200BDF812200120019070
:1012D00009F070FC019809F039FDFFE706B080BD08
:1012E00066666666666644400000000000002840AE
:1012F00080B50020C4F20200042102220AF05CF84A
:1013000050B1FFE70020C4F20200042101220AF0DC
:1013100041F80BF0B1FCFFE780BD000080B584B060
:10132000039003980190FFE7019800788DF80B0077
:101330000198013001909DF80B0008B9FFE727E004
:101340009DF80B00FF2803D1FFE708F001FFEBE752
:101350009DF80B00000600280DD5FFE79DF80B0057
:1013600000F07F010198421C0192007840EA0120C0
:1013700009F01EFE0BE001999DF80B20382001F0CA
:10138000F1FD01989DF80B1008440190FFE7CBE7B1
:1013900004B080BD7047000080B582B00190019814
:1013A00003F09AFB43F2C071C2F200010968488061
:1013B00001980421FFF7CCFE00281CDCFFE7019810
:1013C000FFF7D4FE014640F2C840C2F200000170AF
:1013D00000780146009120B1FFE70098022804D070
:1013E00007E0019803F0ECFB04E0019803F04CFCEB
:1013F00000E0FFE7FFE702B080BD000080B582B0EB
:10140000ADF80600BDF80600C82806DBFFE7BDF80A
:101410000600B0F5967F05DDFFE740F20910FFF703
:10142000EDFF17E00020ADF804009DF8060000F085
:101430003F008DF80400BDF80600C0F382108DF85F
:1014400005009DF804209DF80530812002210BF055
:10145000FBFDFFE702B080BD80B584B084460698EE
:101460008DF80FC08DF80E10ADF80C208DF80B30F4
:101470008DF80A00BDF80C00ADF808009DF80B00CF
:101480008008ADF806009DF80E009DF80F10BDF81D
:101490000C200244013ABDF806300B44013BD2B2A5
:1014A000DBB20BF079FC5C2000210BF0CDFD9DF848
:1014B0000A00BDF80810BDF80620514389B20BF0B0
:1014C00051FE04B080BD000080B592B08DF8470099
:1014D0008DF846109DF847001F2805DCFFE79DF8B2
:1014E0004600202801DBFFE723E031200021109196
:1014F0000BF0AAFD109B9DF847109DF8462068460A
:101500000F9043630363C262826242620362C361FB
:10151000826143610361C16081604160036020209A
:1015200010211A460BF090FD109930200BF08CFD25
:10153000FFE712B080BD000080B582B08DF80700D3
:10154000A6208DF806009DF80700C00730B1FFE720
:101550009DF8060001308DF80600FFE79DF80600B3
:1015600000210BF071FD02B080BD000080B582B09B
:101570008DF807009DF8070028B9FFE7AE2000218D
:101580000BF062FD04E0AF2000210BF05DFDFFE7F2
:1015900002B080BD80B584B0039002918DF8072021
:1015A00008F0EAFD03999DF8072044F23900C0F2E3
:1015B000F40004F0C9FC02999220C0F2F40004F097
:1015C0008FFC9DF807109320C0F2F40004F088FC13
:1015D000002004B080BD000083B00290ADF806107A
:1015E0008DF805200020ADF80200ADF80200FFE7FD
:1015F000BDF80200BDF80610013988420DDAFFE798
:101600009DF805000299BDF802208854FFE7BDF857
:1016100002000130ADF80200EAE70299BDF80220AD
:101620000020885403B0704783B00290ADF80610D4
:101630000020ADF80400ADF80200ADF80400FFE7AB
:10164000BDF80400BDF80610884216DAFFE70299DB
:10165000BDF80200085CBDF80420895C884205DD05
:10166000FFE7BDF80400ADF80200FFE7FFE7BDF8B3
:1016700004000130ADF80400E2E7BDF8020003B059
:101680007047000080B588B040F20020C0F2300002
:1016900001210AF0BFF840F60000C4F201000590F5
:1016A0000421069102220492812309F0DBFF049AAF
:1016B000059828214FF4004309F0D4FF049A0699B5
:1016C00040F60040C4F20100039040F6034309F0E5
:1016D000C9FF049A059840F61401C4F201014023A1
:1016E0000B601021009109F0BDFF0099049A41F2AE
:1016F0001400C4F2010040F6D853036041F2000028
:10170000C4F20100019009F0ADFF00990398049A1A
:1017100040F6144CC4F2010C4FF48073CCF8003046
:1017200009F0A0FF0198049B002102910322079277
:1017300009F098FF02990598079A302309F092FF63
:1017400002990598069B079A09F08CFF0398049A62
:1017500040F61041C4F20101C0230B60142109F0CE
:1017600081FF0598079A18214FF4007309F07AFF5A
:1017700005980699079A4FF4806309F073FF08B043
:1017800080BD0000B0B58AB08C4686460F980E9991
:10179000ADF826E08DF825C08DF8242008938DF84B
:1017A0001F108DF81E009DF824008DF81D009DF877
:1017B0001D00202805DBFFE79DF81D007F2804DBC6
:1017C000FFE73F208DF81D00FFE70898807940076C
:1017D00040B9FFE70898C088C1088DF81C10C0F315
:1017E000C70008E00898C188012000EBD1008DF8FF
:1017F0001C00C0B2FFE79DF81D0020389DF81C10AA
:101800004843089989884843ADF81A000898006849
:10181000BDF81A1008440590BDF826009DF8251063
:10182000089B9A889B799DF81FC09DF81E40059DD6
:10183000EE46CEF80C50CEF80840CEF804C04FF07B
:10184000000CCEF800C000F041F80AB0B0BD0000B6
:1018500080B582B08DF807000020ADF80400FFE7E6
:10186000BDF80400172829DCFFE70020ADF80200CE
:10187000FFE7BDF80200FF2819DCFFE79DF807101D
:101880004CF6F950C0F60100405CBDF8042040F26F
:10189000D541C2F2000101EB0221BDF802208854BB
:1018A000FFE7BDF802000130ADF80200E1E7FFE715
:1018B000BDF804000130ADF80400D1E70021FF229B
:1018C0005F23084600F09CFF02B080BDB0B58AB02F
:1018D00094468E460446119810980F990E9AADF8CA
:1018E00026408DF825E0ADF822C08DF821308DF826
:1018F00020208DF81F108DF81E000020ADF8140078
:101900009DF821109DF820304CF6F752C0F60102E8
:10191000D25CB1FBF2F101318DF813108DF810009B
:10192000ADF81800FFE7BDF818009DF813108842C5
:1019300080F2B280FFE79DF82130BDF818009DF8D5
:1019400020204CF6F751C0F601018A5C00FB1230F2
:101950008DF812009DF812009DF82020895C8842C5
:101960000ADBFFE79DF820104CF6F750C0F60100A7
:10197000405C8DF8110004E09DF812008DF8110014
:10198000FFE70020ADF81C00FFE7BDF81C00BDF824
:10199000221088426DDAFFE71198BDF81410405C00
:1019A0008DF817000020ADF81A00FFE7BDF81A0007
:1019B0009DF81110884250DAFFE79DF8200058BBCF
:1019C000FFE7BDF82600BDF81C10084402909DF802
:1019D0002500BDF81A1008449DF810100844039023
:1019E0009DF817000006002804D5FFE79DF81F00AA
:1019F000019003E09DF81E000190FFE70399029813
:101A0000019A80B2C9B2D2B200F0C6F89DF81700B0
:101A100040008DF8170019E0BDF82600BDF81C1035
:101A200008449DF82510BDF81A2011449DF8102097
:101A300011449DF81720920980B2C9B200F0ACF8A9
:101A40009DF8170080008DF81700FFE7FFE7BDF84D
:101A50001A000130ADF81A00A8E7BDF814000130F3
:101A6000ADF81400FFE7BDF81C000130ADF81C0014
:101A70008BE79DF820104CF6F750C0F60100415C52
:101A80009DF8100008448DF81000FFE7BDF818001D
:101A90000130ADF8180046E79DF82510BDF8260086
:101AA000BDF822200244013A9DF821300B44013B4D
:101AB00092B2DBB2C0B200F0A3FE0AB0B0BD00002B
:101AC00080B584B0DDF818C08DF80F008DF80E10C9
:101AD000ADF80C208DF80B300020ADF800009DF81B
:101AE0000E008008ADF804009DF80B008008ADF8EA
:101AF0000200BDF80400ADF80800FFE7BDF80800DB
:101B0000BDF80410BDF802201144884231DAFFE725
:101B10009DF80F00ADF80600FFE7BDF806009DF840
:101B20000F10BDF80C20114488421BDAFFE706981D
:101B3000BDF80010405CBDF8082040F2D541C2F26B
:101B4000000101EB0221BDF806208854BDF8000019
:101B50000130ADF80000FFE7BDF806000130ADF838
:101B60000600DAE7FFE7BDF808000130ADF808002D
:101B7000C4E79DF80F009DF80E10BDF80C2002443C
:101B8000013A9DF80B300B44013B92B2DBB200F0FE
:101B900037FE04B080BD000082B0ADF806008DF8BD
:101BA00005108DF804209DF8050080088DF80300CD
:101BB0009DF80510032020EA010149008DF802106C
:101BC0009DF8021000FA01FC9DF8031040F2D54088
:101BD000C2F2000000EB0122BDF80630D15C21EA20
:101BE0000C01D1549DF804109DF8022001FA02F373
:101BF0009DF8031000EB0121BDF80620885C184316
:101C0000885402B07047000080B586B084460898BA
:101C1000ADF816C08DF81510ADF812208DF8113002
:101C20008DF810009DF81100ADF80A009DF8150020
:101C3000ADF80600BDF8060000F00300ADF80400A2
:101C4000BDF8060080088DF80300FFE7BDF80A0024
:101C5000002800F0CB80FFE7BDF80A00BDF80410B3
:101C6000C1F10401884205DAFFE7BDF80A00ADF8CA
:101C7000080007E0BDF80400C0F10400ADF808005A
:101C800080B2FFE700208DF802008DF80100BDF85A
:101C9000080004282DD1FFE79DF810104CF6F950EC
:101CA000C0F60100405C8DF80200BDF81600ADF8EA
:101CB0000E00FFE7BDF80E00BDF81210BDF81620AB
:101CC0001144884214DAFFE79DF802009DF80320D2
:101CD00040F2D541C2F2000101EB0221BDF80E2015
:101CE0008854FFE7BDF80E000130ADF80E00E1E7C3
:101CF00062E00020ADF80E00FFE7BDF80E00BDF871
:101D00000810884226DAFFE7BDF80E00BDF804107F
:101D10000844C0F1030040008DF800009DF8100059
:101D20009DF8001000FA01F19DF8020008438DF8BB
:101D300002009DF80010032000FA01F19DF8010057
:101D400008438DF80100FFE7BDF80E000130ADF843
:101D50000E00D2E7BDF81600ADF80E00FFE7BDF8A3
:101D60000E00BDF81210BDF816201144884222DA88
:101D7000FFE79DF801C09DF8031040F2D540C2F284
:101D8000000000EB0122BDF80E30D15C21EA0C010D
:101D9000D1549DF802309DF8031000EB0121BDF8ED
:101DA0000E20885C18438854FFE7BDF80E00013010
:101DB000ADF80E00D3E7FFE7BDF80810BDF80A0044
:101DC000401AADF80A00BDF80810BDF80600084436
:101DD000ADF80600BDF8060000F00300ADF8040001
:101DE000BDF8060080088DF803002FE79DF8151058
:101DF000BDF81600BDF812200244013A9DF81130DA
:101E00000B44013B92B2DBB2C0B200F0F9FC06B069
:101E100080BD000080B584B084460698ADF80EC041
:101E20008DF80D10ADF80A208DF809308DF80800F6
:101E30009DF80D008008ADF802009DF809008008AB
:101E4000ADF80000BDF80200ADF80400FFE7BDF8F2
:101E50000400BDF80210BDF80020114488422ADABF
:101E6000FFE7BDF80E00ADF80600FFE7BDF806007D
:101E7000BDF80E10BDF80A201144884214DAFFE7BD
:101E80009DF80800BDF8042040F2D541C2F20001DF
:101E900001EB0221BDF806208854FFE7BDF80600DB
:101EA0000130ADF80600E1E7FFE7BDF804000130BE
:101EB000ADF80400CBE79DF80D10BDF80E00BDF89D
:101EC0000A200244013A9DF809300B44013B92B2CA
:101ED000DBB2C0B200F094FC04B080BDB0B58CB0F1
:101EE0008C46864612981199109CADF82EE08DF81C
:101EF0002DC08DED0A0A8DF827208DF826308DF83B
:101F000025108DF8240000208DF823009DED0A0A8D
:101F1000BDEEC00A8DED070A9DED0A0A9DED071A78
:101F2000B8EEC11A30EE410A9DF827104CF6B860A1
:101F3000C0F6010000EB810090ED001AB8EE411AE6
:101F400020EE010ABDEEC00A8DED060A0698B0F13A
:101F5000FF3F04DCFFE7069840420690FFE79DF84C
:101F6000260001284BD1FFE7BDF82E009DF82D106B
:101F7000069A109B9DF825E09DF82440EC46CCF88D
:101F80000840CCF804E0CCF800300123059300F0C1
:101F9000FDF8BDF82E209DF827000130109B998890
:101FA00000FB11209DF82D109DF825209DF824E0C0
:101FB000EC46CCF804E0CCF8002080B22E22FFF7EB
:101FC000E1FB059BBDF82E209DF827000130DDF8D0
:101FD00040C0BCF8041000FB11209DF82D10079A9A
:101FE0009DF825409DF82450EE46CEF80850CEF8D6
:101FF0000440CEF800C080B200F0C8F84BE0BDF855
:102000002E009DF82D10069A109B9DF825E09DF856
:102010002440EC46CCF80840CCF804E0CCF8003082
:102020000023049300F0B2F88DF82300BDF82E20B1
:102030009DF82300109B998800FB01209DF82D102E
:102040009DF825209DF824E0EC46CCF804E0CCF87F
:10205000002080B22E22FFF795FB049BBDF82E20B6
:102060009DF823000130DDF840C0BCF8041000FBEF
:1020700001209DF82D10079A9DF825409DF82450C9
:10208000EE46CEF80850CEF80440CEF800C080B23C
:1020900000F07CF8FFE70CB0B0BD000010B584B0D4
:1020A0008C46864607980699ADF80EE08DF80DC06F
:1020B0008DF80C20ADF80A30ADF808108DF8070047
:1020C0009DF80C0001282FD1FFE7BDF80E00BDF8E8
:1020D0000A100844B0F5807F07DDFFE7BDF80E0069
:1020E000C0F58070ADF80A00FFE79DF80D00BDF85F
:1020F00008100844612807DBFFE79DF80D00C0F1D8
:102100006000ADF80800FFE7BDF80E009DF80D1067
:10211000BDF80A209DF808309DF807C0EE46CEF8BD
:1021200000C0FFF771FD2EE09DF80D00BDF80A100C
:102130000844612807DBFFE79DF80D00C0F160004F
:10214000ADF80A00FFE7BDF80E00BDF8081008441E
:10215000B0F5807F07DDFFE7BDF80E00C0F58070A9
:10216000ADF80800FFE7BDF80E009DF80D10BDF8B2
:1021700008209DF80A309DF807C0EE46CEF800C052
:10218000FFF742FDFFE704B010BD000010B58AB0B4
:102190008C4686460E980D990C9CADF826E08DF87D
:1021A00025C008928DF81F308DF81E108DF81D0087
:1021B00000208DF81C00089802900298B0F1FF3FB3
:1021C00004DCFFE7029840420290FFE7FFE7029835
:1021D00046F26761C6F2666150FB01F39A1002EBAA
:1021E000D37202EB8202A0EB42009DF81C300DF18D
:1021F0000F02D054029850FB01F1881000EBD1700F
:1022000002909DF81C0001308DF81C00FFE7029839
:102210000028DCD1FFE70898B0F1FF3F0CDCFFE7B6
:102220009DF81C200DF10F012D2088549DF81C00F5
:1022300001308DF81C00FFE79DF81F0000285CD1DD
:10224000FFE700208DF81B00FFE79DF81B009DF8BD
:102250001C10884250DAFFE79DF81C109DF81B0007
:10226000C04301440DF10F00405C2D281AD1FFE757
:10227000BDF826009DF825109DF81C309DF81B2008
:10228000D24313440DF10F02D25C0C9B9DF81EC08B
:102290009DF81D40EE46CEF80440CEF800C0FFF792
:1022A00071FA1BE0BDF826009DF825109DF81C3042
:1022B0009DF81B20D24313440DF10F02D25C303243
:1022C0000C9B9DF81EC09DF81D40EE46CEF80440C4
:1022D000CEF800C0D2B2FFF755FAFFE70C9881881C
:1022E000BDF826000844ADF82600FFE79DF81B0066
:1022F00001308DF81B00A8E757E000208DF81B0087
:10230000FFE79DF81B009DF81C1088424CDAFFE7A0
:102310009DF81B100DF10F00405C2D281AD1FFE72E
:10232000BDF826000C9B9988401A9DF825109DF851
:102330001BC00DF10F0212F80C209DF81EC09DF875
:102340001D40EE46CEF80440CEF800C080B2FFF744
:1023500019FA1BE0BDF826000C9B9988401A9DF8DD
:1023600025109DF81BC00DF10F0212F80C20303221
:102370009DF81EC09DF81D40EE46CEF80440CEF8F4
:1023800000C080B2D2B2FFF7FDF9FFE70C98818858
:10239000BDF82600401AADF82600FFE79DF81B00A7
:1023A00001308DF81B00ACE7FFE79DF81C000AB078
:1023B00010BD000080B58AB084460C98ADF822C0EC
:1023C00007918DF81B208DF81A308DF819000798A9
:1023D0000590BDF82200ADF8120032208DF81100F2
:1023E0004FF48070ADF80E006020ADF80C009DF841
:1023F0001B009DF81A10401A9DF8191012F07AF877
:102400008DF80B009DF81A10059808440590FFE719
:102410009DF80B00002857D0FFE70598007820288A
:1024200019DBFFE7059800787E2814DCFFE7BDF88C
:1024300012009DF81110059A1278EC460023CCF892
:1024400004300323CCF8003040F21403C2F200033E
:10245000FFF798F919E0059800780D2803D1FFE7F8
:102460000120099033E0BDF812009DF811106B4671
:1024700000225A6003221A6040F21403C2F20003E1
:102480002022FFF77FF9FFE7FFE740F21401C2F2D5
:1024900000018A88BDF812001044ADF81200BDF8A2
:1024A000120089880844BDF80E10884203DDFFE75A
:1024B000022009900BE00598013005909DF80B0073
:1024C00001388DF80B00A3E700200990FFE7099879
:1024D0000AB080BD10B588B08C4686460B980A9924
:1024E000ADF81EE08DF81DC0ADF81A208DF819303A
:1024F0008DF818108DF81700BDF81E009DF81D10FE
:10250000BDF81A309DF818209DF817E0EC46CCF87D
:1025100004E0CCF8002001220392FFF7BFFD039AEC
:10252000BDF81E009DF81D109DF819301944BDF826
:102530001A309DF818C09DF81740EE46CEF80440BA
:10254000CEF800C0C9B2FFF7A9FDBDF81E009DF886
:102550001D109DF819309DF818209DF817E0EC46E5
:10256000CCF804E0CCF8002000220492FFF796FD9E
:10257000049ABDF81E00BDF81A1008449DF81D10FD
:102580009DF819309DF818C063449DF81740EE4639
:10259000CEF80440CEF800C080B2FFF77FFD08B04F
:1025A00010BD000080B588B084460A98ADF81EC002
:1025B000ADF81C10ADF81A208DF819308DF8180000
:1025C000BDF81A00BDF81E20801A00EB8000400103
:1025D000BDF81C10891A90FBF1F08DF817009DF8DA
:1025E0001800C007D0B1FFE740F23C01C2F2000181
:1025F000642008706946002004900860212033217F
:102600009F221323FFF700FB049869460860E72028
:10261000362115220C23FFF7F7FAFFE79DF8190082
:1026200040F23C01C2F200010978884218D0FFE76D
:102630009DF81920694600238B600320486040F212
:102640001400C2F200000860E7203621FFF79EFD6B
:102650009DF8190040F23C01C2F200010870FFE74A
:102660009DF8170040F23D01C2F20001097888424E
:1026700012D0FFE79DF8172069460320086021204B
:1026800033211323FFF7C0FA9DF8170040F23D01F4
:10269000C2F200010870FFE708B080BD10B588B035
:1026A0008C4686460D980C990B9C0A9CADF81EE052
:1026B0008DF81DC0ADF81A20ADF818308DF8171040
:1026C0008DF816000A980490BDF81E00ADF80E00B3
:1026D0009DF81D008DF80D00BDF81A00ADF80A0038
:1026E000BDF81800ADF80800BDF91A00002806D49E
:1026F000FFE7BDF91A00B0F5807F05DDFFE74FF475
:102700008070ADF80A00FFE7BDF91800002805D475
:10271000FFE7BDF91800612804DBFFE76020ADF892
:102720000800FFE7FFE704980078002866D0FFE77D
:10273000049800780A281AD1FFE7BDF81E00ADF80A
:102740000E000B98C1889DF80D0008448DF80D000F
:102750009DF80D000B99C9880844BDF808108842FF
:1027600001DDFFE74AE0049801300490DBE7BDF8A3
:102770000E009DF80D10049A12780B9B9DF817C05F
:102780009DF81640EE46CEF80440CEF800C0FEF7A5
:10279000F9FF0B988188BDF80E000844ADF80E00D3
:1027A000BDF80E000B9989880844BDF80A108842CC
:1027B00020DDFFE7BDF81E00ADF80E000B98C188C4
:1027C0009DF80D0008448DF80D009DF80D000B9943
:1027D000C9880844BDF80810884201DDFFE70DE014
:1027E00004984078202804D1FFE704980130049031
:1027F000FFE7FFE704980130049094E708B010BDAC
:1028000082B08DF807008DF80610ADF804208DF821
:1028100003309DF8070043F6C421C2F20001098885
:10282000884208DAFFE79DF8070043F6C421C2F2A8
:1028300000010880FFE79DF8060043F6C821C2F2B8
:1028400000010988884208DAFFE79DF8060043F690
:10285000C821C2F200010880FFE7BDF8040043F67A
:10286000C221C2F200010988884208DDFFE7BDF8F5
:10287000040043F6C221C2F200010880FFE79DF880
:10288000030043F6C621C2F200010988884208DD30
:10289000FFE79DF8030043F6C621C2F2000108805D
:1028A000FFE702B07047000086B0059004910392E4
:1028B0004FF2E070C1F6FF7002900298006801903C
:1028C000019804990880BDF80600039908804FF22A
:1028D000E870C1F6FF70029000208DF80300FFE75A
:1028E0009DF80300022811DCFFE7029800680599B3
:1028F0009DF8032041F82200029804300290FFE77F
:102900009DF8030001308DF80300E9E706B0704739
:1029100080B584B0039043F6B020C2F20000006896
:1029200090F90400142808DBFFE743F6B020C2F258
:1029300000000068807C08B1FFE745E00720694699
:10294000012200F0DDF89DF800000399087003985B
:1029500000780006002837D5FFE703980078800646
:10296000002831D4FFE7072069460A2200F0C8F8A2
:102970009DF80000039908709DF801109DF8020071
:1029800040EA0120039948809DF803109DF8040057
:1029900040EA0120039988809DF805109DF8060003
:1029A00040EA01200399C8809DF807109DF80800AF
:1029B00040EA0120039908819DF8090003994881A4
:1029C0000398FEF7E9FCFFE704B080BD80B582B054
:1029D00000200DF10301052200F092F89DF803009C
:1029E000410943F6B020C2F200000268D1729DF89E
:1029F00003100268C1F3C00191729DF804206FF0CA
:102A0000070101EB5201026811710068807C68B90E
:102A1000FFE79DF8050043F6B021C2F200010A6805
:102A200050719DF806000968C87108E09DF805001E
:102A300043F6B021C2F2000109688871FFE79DF8F2
:102A4000070000F07F0043F6B021C2F200010968E0
:102A500008729DF807000006002809D5FFE743F635
:102A6000B020C2F200000168087A40420872FFE715
:102A700002B080BD80B584B0039000200290382061
:102A800000F038FA9DF80E0000F096FA9DF80D005F
:102A900000F092FA9DF80C0000F08EFA392000F058
:102AA0000BFA9DF80D00400600280DD5FFE7002029
:102AB00000F084F900020290012000F07FF9014645
:102AC00002980843029016E00020019000F076F989
:102AD000014601980904029100F070F9014602983C
:102AE00040EA01200290012000F068F901460298B6
:102AF00008430290FFE700F015FA029804B080BD89
:102B000080B584B08DF80F0002918DF80720002069
:102B10000090ADF80400382000F0ECF99DF80F00AB
:102B200000F04AFA392000F0C7F90098ADF8040027
:102B3000FFE7BDF804009DF80710013988420EDA5E
:102B4000FFE7002000F03AF90299BDF8042088540C
:102B5000FFE7BDF804000130ADF80400E9E701200B
:102B600000F02CF90299BDF80420885400F0DAF93D
:102B700004B080BD80B582B08DF8070000208DF8CC
:102B800006008DF8050043F67020C2F20000807C3C
:102B9000ADF8020001F032FFBDF8020040F2581219
:102BA000C2F20002CC2100FB01204078002800F096
:102BB000E080FFE79DF90700012853DBFFE70020D5
:102BC0008DF80600FFE79DF90600BDF8021040F2FF
:102BD0005813C2F20003CC2201FB0231497888422B
:102BE0002FDAFFE7BDF8022040F25811C2F20001CF
:102BF000CC2002FB00109DF9061000EB41008088FC
:102C000043F67021C2F2000101EB4201898A884239
:102C100010DDFFE79DF80600BDF8021040F25813E2
:102C2000C2F20003CC2201FB0231887001208DF832
:102C3000050006E0FFE79DF8060001308DF806006C
:102C4000C1E79DF8050060B9FFE7BDF8020040F25A
:102C50005812C2F20002CC2100FB01210020887032
:102C6000FFE753E0BDF8020040F25812C2F2000242
:102C7000CC2100FB0120407801388DF80600FFE7E9
:102C80009DF9060000282FD4FFE7BDF8022040F28E
:102C90005811C2F20001CC2002FB00109DF9061071
:102CA00000EB4100808843F67021C2F2000101EB85
:102CB0004201898A884210DAFFE79DF80600BDF8D4
:102CC000021040F25813C2F20003CC2201FB023181
:102CD000887001208DF8050006E0FFE79DF80600EA
:102CE00001388DF80600CBE79DF8050068B9FFE7CD
:102CF000BDF8020040F25812C2F20002CC2100FBE3
:102D00000121487801388870FFE7FFE7BDF802200D
:102D100040F25811C2F20001CC2002FB0010817871
:102D200000EB4100808843F67021C2F2000101EB04
:102D300042018882BDF8020068B9FFE7BDF80210C1
:102D400043F67020C2F2000000EB4100808A0421AB
:102D500003F0BAFD0CE0BDF8021043F67020C2F299
:102D6000000000EB4100808A012103F0ADFDFFE788
:102D7000FFE702B080BD0000FFE7FEE781B08DF8FD
:102D8000030003208DF80200FFE79DF80300411EB9
:102D90008DF8031068B1FFE703208DF80200FFE70C
:102DA0009DF80200411E8DF8021008B1FFE7F7E719
:102DB000EBE701B0704700007047000080B584B0B9
:102DC0008DF80F0000208DF80E0040F61042C4F27E
:102DD0000102802111608DF80D00FFE79DF80D00C4
:102DE00007283CDCFFE79DF80E0040008DF80E0040
:102DF0000220FFF7C3FF40F61041C4F2010140205A
:102E000008600120FFF7BAFFFFE740F60040C4F278
:102E10000100402108F0E8FC08B9FFE7F5E740F6BB
:102E20000040C4F20100802108F0DEFC38B1FFE769
:102E30009DF80E0040F001008DF80E00FFE7012024
:102E4000FFF79CFF40F61441C4F2010140200860E6
:102E5000FFE79DF80D0001308DF80D00BEE79DF8ED
:102E60000F00C00738B1FFE740F61041C4F201017E
:102E70008020086006E040F61441C4F20101802081
:102E80000860FFE702200190FFF778FF019840F605
:102E90001042C4F20102402102911160FFF76EFF5F
:102EA000029840F61441C4F20101086080200860D5
:102EB0009DF80E0004B080BD80B584B08DF80F0081
:102EC00004200290FFF75AFF029840F61042C4F225
:102ED0000102019280211160FFF750FF019A0298D0
:102EE00040211160FFF74AFF9DF80F0000F002F843
:102EF00004B080BD80B582B08DF8070040F6144163
:102F0000C4F201010091802008600420FFF736FF21
:102F10000099402008609DF8070000F04DF802B0CD
:102F200080BD000080B584B040F61441C4F20101B8
:102F300080200290086004200390FFF71FFF039891
:102F400040F61042C4F20102019240211160FFF7E5
:102F500015FF019A029903981160FFF70FFF04B063
:102F600080BD000080B584B08DF80F000291ADF8EF
:102F700006209DF80F0000F0FE00FFF7BBFF0020C9
:102F8000ADF80400FFE7BDF80400BDF80610884264
:102F90000DDAFFE70298BDF80410405C00F00CF871
:102FA000FFE7BDF804000130ADF80400EBE7FFF7E0
:102FB000B9FF04B080BD000080B586B08DF8170061
:102FC00080208DF81600FFE79DF8160090B3FFE70C
:102FD0000120FFF7D3FE9DF816009DF81710084258
:102FE00007D0FFE740F61041C4F2010180200860DD
:102FF00006E040F61441C4F2010180200860FFE7BA
:103000000120FFF7BBFE40F61041C4F20101402051
:10301000049008600220FFF7B1FE049840F61441C6
:10302000C4F201010860FFE79DF8160040088DF822
:103030001600C9E701200090FFF7A0FE009840F6B7
:103040001042C4F201020192802103911160FFF746
:1030500095FE039940F60040C4F2010008F0C4FB5D
:1030600001998DF815004020029008600220FFF7BA
:1030700085FE029A039840F61441C4F201010A60E9
:1030800008609DF81500B0FA80F0400906B080BDD8
:1030900081B0ADF80000BDF80000092804DCFFE7AE
:1030A00001208DF8030021E0BDF80000632804DC56
:1030B000FFE702208DF8030018E0BDF80000B0F52E
:1030C0007A7F04DAFFE703208DF803000EE0BDF8F5
:1030D000000042F20F71884204DCFFE704208DF803
:1030E000030003E005208DF80300FFE79DF80300CF
:1030F00001B0704780B582B08DF807008DF80610DA
:103100009DF8071040F2CF40C2F20000405C01463B
:10311000009140B1FFE7009801282DD0FFE700980B
:10312000022865D073E09DF8071040F2C940C2F252
:103130000000405C022811DBFFE79DF8072040F209
:10314000C941C2F20001002088549DF8072043F2D3
:103150001151C2F2000101208854FFE79DF80600DA
:1031600048B9FFE79DF8072040F2CF41C2F20001C5
:1031700001208854FFE74BE011F0D4FD9DF80600D4
:1031800050B9FFE79DF8072040F2C941C2F20001A3
:10319000885C0130885408E09DF8072040F2CF4158
:1031A000C2F2000100208854FFE79DF8071040F2AA
:1031B000C940C2F20000405C642818DBFFE79DF8BC
:1031C000072040F2CF41C2F20001022088549DF84E
:1031D000073040F2C942C2F200020021D1549DF8EA
:1031E000072043F21151C2F200018854FFE70FE0BB
:1031F0009DF80600012809D1FFE79DF8072040F25D
:10320000CF41C2F2000100208854FFE700E0FFE751
:1032100002B080BD80B58EB000F094F841F200009D
:10322000C4F2010003908021049108F0F7F96420B2
:103230000B9007F0BDFE0398049908F0F7F90B987E
:1032400007F0B6FE3020069000210D9109F0FCFE3B
:103250000D99942009F0F8FE0D99312009F0F4FE43
:10326000D72001210C919F22089209F0EDFE0C9BC2
:103270000D9A68460321079101603220059009F0FC
:10328000E3FE059807996A461060F2201E22282363
:1032900009F0DAFE68460D2343600360F0200990D0
:1032A00004211A4609F0D0FE06980D9909F0CCFECB
:1032B0000D99084609F056FD0C990D9ABC2009F0AD
:1032C000C3FE0799089B0D9AEC460A20CCF8000033
:1032D000CA2009F0B9FE09980C99112209F0B4FE30
:1032E0000C9920200B2209F0AFFE43F6B410C2F275
:1032F00000000A90C088FEF781F80A99487889781A
:10330000FEF7E2F80A98C07800F00100FEF714F921
:103310000D98FEF79DFA0D99684601604FF4807292
:1033200060230846FEF798F80B9807F08DFE0C987E
:10333000FEF71CF90D9807F0B9FC052007F038FEE0
:103340000EB080BD80B58CB040F2036011F0AEFCD1
:103350004FF4C06011F0AAFC40F20E7011F0A6FC10
:103360000A2007F071FE40F61040C4F201004FF44D
:10337000A043036040F60040C4F201000190102118
:103380000322029208F06EF90198029A18214FF474
:10339000204308F067F905A8039015F029F943F6D2
:1033A0000000C4F20000049015F088F8029B039915
:1033B00004984FF4404206924FF482720592002224
:1033C00007920A934FF4007308930B92099215F039
:1033D000C5F8049815F002F904984FF4804115F0EF
:1033E00025F8049815F04EF80CB080BD82B08DF829
:1033F000070043F6C421C2F20001FF20088043F613
:10340000C821C2F200015F20088043F6C221C2F247
:1034100000010020088043F6C621C2F200010880A6
:103420009DF80700C007C0B1FFE743F6B411C2F230
:103430000001009105208880888800EB8000400012
:1034400088601420087040F20912CA8010224A7065
:1034500088700020C8700873FFE702B07047000052
:10346000FFE7FEE780B50020012103F021FBFFE725
:1034700043F21150C2F20000007818B1FFE708F0E3
:103480008FF802E006F020FEF2E780BD00000000A9
:1034900070B5A0B000201F904FF400311E911D9018
:1034A00040F20311C0F209311C918DF86F008DF8C4
:1034B0006E008DF86D009DF96F009DF96D109DF9FE
:1034C0006E20012303F02EFBFFE743F21150C2F2FE
:1034D00000004078F0B1FFE743F21151C2F2000161
:1034E000002048709DF96F0008B9FFE7EDE79DF8EF
:1034F0006F0001388DF86F0000238DF86E308DF865
:103500006D309DF96F009DF96D109DF96E2003F0EF
:1035100009FBFFE743F21150C2F200008078F8B1D6
:10352000FFE743F21151C2F20001002088709DF9BB
:103530006F00072801D1FFE7C7E79DF86F00013052
:103540008DF86F0000238DF86E308DF86D309DF989
:103550006F009DF96D109DF96E2003F0E3FAFFE70F
:1035600043F21150C2F200000079E8B1FFE743F2E4
:103570001151C2F2000100201A9008719DF96F20CC
:103580001EA9895601399DF96E20012308F07EFBA2
:103590001A9B8DF86E009DF96F009DF96D109DF9D5
:1035A0006E2003F0BFFAFFE743F21850C2F20000AA
:1035B00090F90000002800F04882FFE79DF96F00B5
:1035C00001461991072800F22F821999DFE811F0BE
:1035D00008009400D2006401010202020302040206
:1035E0009DF96D000146189140B1FFE71898012838
:1035F0002DD0FFE71898022853D07CE043F2C47026
:10360000C2F20000179090ED000A43F21850C2F287
:10361000000090F9000001EE100AB8EEC11A30EE79
:10362000010ABDEEC00A10EE102A6FF02F0018211B
:1036300008F010FB0146179800EE101AB8EEC00A09
:1036400080ED000A90ED000A13F08AF853E043F28F
:10365000C470C2F20000169090ED030A43F21850B5
:10366000C2F2000090F9000001EE100AB8EEC11A93
:1036700030EE010ABDEEC00A10EE102A6FF02F00E6
:10368000002108F0E7FA0146169800EE101AB8EE8D
:10369000C00A80ED030A90ED030A4C2012F06CFC86
:1036A00029E043F2C470C2F20000159090ED040AC4
:1036B00043F21850C2F2000090F9000001EE100A27
:1036C000B8EEC11A30EE010ABDEEC00A10EE102AA3
:1036D0006FF02F00002108F0BDFA0146159800EEAA
:1036E000101AB8EEC00A80ED040A90ED040A5220C8
:1036F00012F042FCFFE797E143F2C470C2F200000F
:1037000014904069FCF789FF41EC100B8DED120B12
:1037100043F21850C2F2000090F90000FCF74DFF90
:1037200041EC100B9FEDE41B53EC112B51EC100BF3
:10373000FCF711FE9DED120B41EC110B51EC110B3E
:1037400053EC102BFCF760FD41EC100B51EC100B0F
:10375000FCF776FF01EE100AB0EE0C0ADFEDD90A95
:1037600008F04EFA149880ED050A90ED050A12F063
:103770006FFC59E19DF96E000146119120B1FFE700
:103780001198012831D076E09DF96D0000EB4001E1
:1037900043F2DC70C2F20000109000EB810090ED6B
:1037A000010A43F21850C2F2000090F9000001EE45
:1037B000100AB8EEC11A30EE010ABDEEC00A10EED2
:1037C000102A6FF00B000C2108F044FA0146109803
:1037D00000EE101AB8EEC00A9DF96D1001EB410120
:1037E00000EB810080ED010A45E09DF96D0000EBE2
:1037F000400143F2DC70C2F200000F9000EB810048
:103800008068FCF70AFF41EC100B8DED0C0B43F2C6
:103810001850C2F2000090F90000FCF7CEFE41EC17
:10382000100B9FEDA31B53EC112B51EC100BFCF76D
:1038300092FD9DED0C0B53EC102B41EC100B51EC59
:10384000100BFCF7E1FC41EC100B51EC100BFCF7FA
:10385000F7FE01EE100A9FED9A0AF2EE040A08F054
:10386000CFF90F989DF96D1001EB410100EB81003C
:1038700080ED020AFFE79DF96D0000EB400143F285
:10388000DC70C2F2000000EB810250F821005168A8
:10389000926812F0E9FCC7E09DF96D0001460B91BA
:1038A00040B1FFE70B98012829D0FFE70B980228C9
:1038B0004AD06EE043F69810C2F200000A9090EDF4
:1038C000010A43F21850C2F2000090F9000001EE24
:1038D000100AB8EEC11A30EE010ABDEEC00A10EEB1
:1038E000102A6FF00B000C2108F0B4F901460A9879
:1038F00000EE101AB8EEC00A80ED010A49E043F666
:103900009810C2F20000099090ED040A43F218509A
:10391000C2F2000090F9000001EE100AB8EEC11AE0
:1039200030EE010ABDEEC00A10EE102A6FF00B0057
:103930000C2108F08FF90146099800EE101AB8EE34
:10394000C00A80ED040A24E043F69810C2F2000099
:10395000089090ED060A43F21850C2F2000090F968
:10396000000001EE100AB8EEC11A30EE010ABDEEF9
:10397000C00A10EE102A6FF00B000C2108F06AF953
:103980000146089800EE101AB8EEC00A80ED060A4B
:10399000FFE79DF86D6043F6981EC2F2000EDEF858
:1039A0000000DEF80410DEF80820DEF80C30DEF847
:1039B00010C0DEF81440DEF81850EE46CEF80C6069
:1039C000CEF80850CEF80440CEF800C013F03CF812
:1039D0002AE029E028E027E043F66410C2F2000064
:1039E000079090ED010A43F21850C2F2000090F9DE
:1039F000000001EE100AB8EEC11A30EE010ABDEE69
:103A0000C00A10EE102A0020182108F023F9014600
:103A1000079800EE101AB8EEC00A80ED010A90ED8A
:103A2000010A13F089FCFFE79DF96F009DF96D1005
:103A30009DF96E200023069303F074F8069843F274
:103A40001851C2F200010870FFE743F21150C2F2B0
:103A50000000C078E8B1FFE743F21151C2F2000163
:103A600000200590C8709DF96F201CA98956013966
:103A70009DF96D20012308F009F9059B8DF86D0073
:103A80009DF96F009DF96D109DF96E2003F04AF8C5
:103A9000FFE743F21150C2F20000007818B1FFE7CF
:103AA00007F07EFD02E006F00FFB0EE520B070BDD2
:103AB0009A9999999999B93F000000000000E03F58
:103AC000CDCCCC3D0000C84280B592B000208DF82E
:103AD00043000DF13E018A1C40F29440C2F2000006
:103AE00008901030FEF7E0FEE2200DF12B01099165
:103AF0001322FFF705F80899DDF82B0000BAC8611A
:103B000040F69420C0F6020015F086FA40F6E15027
:103B1000C0F6020015F080FA0898016942698369CD
:103B200040F64E70C0F6020015F076FABDF83E1071
:103B3000BDF8402040F6F160C0F6020015F06CFAC6
:103B400040F6F950C0F6020015F066FA0898416890
:103B50008268C36840F60960C0F6020015F05CFA9E
:103B600040F6C450C0F6020015F056FA9DF82B102E
:103B70009DF82C20BDF82D0043BA40F65C30C0F60D
:103B8000020015F049FA9DF82F109DF830009DF8BD
:103B900031C001F00F01020900F00F034FEA1C10C1
:103BA0000CF00F0EEC46CCF804E0CCF8000040F628
:103BB0009D60C0F6020015F02FFA9DF832109DF8B6
:103BC00033009DF834C001F00F01020900F00F032B
:103BD0004FEA1C100CF00F0EEC46CCF804E0CCF8C9
:103BE000000040F6B960C0F6020015F015FA9DF825
:103BF00035109DF836009DF837C001F00F0102091D
:103C000000F00F034FEA1C100CF00F0EEC46CCF83E
:103C100004E0CCF8000040F6D560C0F6020015F0D4
:103C2000FBF99DF839209DF83A00110902F00F02C6
:103C3000030940F66D60C0F6020015F0EDF99DF83D
:103C40003C209DF83D00110902F00F02030940F6E7
:103C50008560C0F6020015F0DFF90999E6200F2211
:103C6000FEF74EFF9DF82B109DF82C309DF82D008F
:103C70001A0903F00F03EC46CCF8000040F675304B
:103C8000C0F6020015F0C8F99DF82E109DF82F30EF
:103C90009DF830001A0903F00F03EC46CCF8000041
:103CA00040F6FB30C0F6020015F0B6F99DF8311071
:103CB0009DF832309DF833001A0903F00F03EC46EB
:103CC000CCF8000040F68140C0F6020015F0A4F9DF
:103CD0009DF834109DF835309DF836001A0903F030
:103CE0000F03EC46CCF8000040F6B830C0F60200F6
:103CF00015F092F99DF837109DF838309DF839008D
:103D00001A0903F00F03EC46CCF8000040F63E40E1
:103D1000C0F6020015F080F940F66070C0F60200AF
:103D200015F07AF99DF94300012103F0F7F9FFE757
:103D300043F21150C2F200004078B0B1FFE743F205
:103D40001151C2F20001002048709DF9430008B9EA
:103D5000FFE7EDE79DF8430001388DF843009DF93A
:103D60004300002103F0DAF9FFE743F21150C2F2F9
:103D700000008078B8B1FFE743F21151C2F20001B0
:103D8000002088709DF94300042801D1FFE7CFE7A8
:103D90009DF8430001308DF843009DF94300002158
:103DA00003F0BCF9FFE743F21150C2F20000C07803
:103DB000002800F09A80FFE79DF943000146079133
:103DC000042800F281800799DFE801F0030F1B2728
:103DD000280040F29441C2F2000191F82F00B0FA9D
:103DE00080F0400981F82F0072E043F67021C2F2A2
:103DF000000191F82000B0FA80F0400981F820001D
:103E000066E040F29441C2F2000191F83000B0FA4D
:103E100080F0400981F830005AE059E043F2115136
:103E2000C2F200010020C8706946C86003208860A3
:103E300040F22C00C2F20000486040F6C070C0F6AC
:103E40000200086008201821F8226023FEF726FCF3
:103E5000FFE743F21150C2F20000C078022822D1DD
:103E6000FFE740F60040C4F201004FF4807107F014
:103E7000DDFB4FF47A70069007F09AF8069807F089
:103E800097F8069807F094F8069807F091F80698C6
:103E900007F08EF872B601201190119880F3138804
:103EA00000F03EFDFFE743F21150C2F2000000783F
:103EB00018B1FFE707F074FB00E0CAE79DF9430083
:103EC000012103F02BF903E000208DF84300FFE708
:103ED0009DF943000021059103F020F9059843F274
:103EE0001151C2F20001C870FFE743F21850C2F24C
:103EF000000090F9000018B1FFE707F051FBFFE761
:103F000043F21150C2F20000007818B1FFE707F049
:103F100047FB02E006F0D8F80AE712B080BD0000C7
:103F200080B588B043F2FF40C2F200000121017069
:103F300000208DF81F009DF91F0003F0E9FA08F03A
:103F40004DFFFFE743F21150C2F200004078C0B1CC
:103F5000FFE743F21151C2F20001002048709DF9C1
:103F60001F0008B9FFE7EDE79DF81F0001388DF845
:103F70001F009DF91F00002103F0CAFA08F02EFF70
:103F8000FFE743F21150C2F200008078C8B1FFE7AA
:103F900043F21151C2F20001002088709DF91F0008
:103FA000062801D1FFE7CDE79DF81F0001308DF80D
:103FB0001F009DF91F00002103F0AAFA08F00EFF70
:103FC000FFE743F21850C2F2000090F90000002809
:103FD00000F0A580FFE79DF91F0001460691062825
:103FE00000F28A800699DFE801F0041E3A53545526
:103FF0006E0043F6B410C2F20000059090F9000084
:1040000043F21851C2F2000191F900104218002049
:10401000642107F01FFE0146059801700178012018
:10402000FDF702F96CE043F6B410C2F20000049010
:10403000B0F9040043F21851C2F2000191F90010E6
:1040400001EB8101421800203C2107F003FE049996
:104050008880888800EB80004000886050E043F64C
:10406000B410C2F200000390C08843F21851C2F2AB
:10407000000191F900104218D2204FF4917107F01D
:10408000E9FD01460398C180C088FDF7B7F937E024
:1040900036E035E043F6B410C2F2000002908178B9
:1040A00090F9010043F21852C2F2000292F9002086
:1040B0000244002007F0CEFD0299487048788978C4
:1040C000FDF702FA1CE043F6B411C2F200010191BF
:1040D000487891F9021043F21852C2F2000292F9A4
:1040E00000200A441F2107F0B5FD01998870487827
:1040F0008978FDF7E9F903E000208DF81F00FFE75C
:104100009DF91F000021009103F002FA08F066FEFD
:10411000009843F21851C2F200010870FFE743F221
:104120001150C2F20000C078B0B3FFE79DF91F0044
:10413000032815D1FFE743F6B410C2F20000C2789D
:1041400001219143C170C07800F00100FDF7F4F93E
:104150009DF91F00002103F0DBF908F03FFEFFE7A7
:104160009DF91F00042810D1FFE743F6B411C2F2F5
:1041700000010A7B0120904308739DF91F00002174
:1041800003F0C6F908F02AFEFFE743F21151C2F22C
:1041900000010020C870FFE743F21150C2F2000096
:1041A000007848B1FFE707F0FBF943F2FF41C2F2A4
:1041B00000010020087002E005F086FFC2E608B0AA
:1041C00080BD000080B582B000208DF807009DF909
:1041D0000700012105F0E6F9FFE743F21150C2F2B2
:1041E00000004078B0B1FFE743F21151C2F2000184
:1041F000002048709DF9070008B9FFE7EDE79DF83A
:10420000070001388DF807009DF90700002105F02F
:10421000C9F9FFE743F21150C2F200008078B8B14B
:10422000FFE743F21151C2F20001002088709DF9AE
:104230000700052801D1FFE7CFE79DF8070001300F
:104240008DF807009DF90700002105F0ABF9FFE7A5
:1042500043F21150C2F20000C07800283CD0FFE7C2
:1042600007F09EF99DF9070001460091052829D81D
:104270000099DFE801F003090F151B24FFF750FE3A
:10428000022011F063FD21E0FFF702F9032011F095
:104290005DFD1BE000F032F8012011F057FD15E044
:1042A00000F03AFA012011F051FD0FE0FFF70CFC8D
:1042B000002011F04BFD012011F048FD06E0FFF752
:1042C000D1F803E000208DF80700FFE79DF9070013
:1042D000012105F067F9FFE743F21150C2F2000037
:1042E000007830B1FFE707F05BF9012004F056F8E1
:1042F00002E005F0E9FE70E702B080BD80B58EB047
:1043000000208DF8370043F67020C2F2000090F8CC
:104310002000002818BF01208DF835009DF93700D6
:10432000012105F07BFAFFE743F21150C2F20000D1
:104330004078B0B1FFE743F21151C2F20001002012
:1043400048709DF9370008B9FFE7EDE79DF83700A1
:1043500001388DF837009DF93700002105F05EFA2D
:10436000FFE743F21150C2F200008078B8B1FFE7D6
:1043700043F21151C2F20001002088709DF937000C
:104380000B2801D1FFE7CFE79DF8370001308DF80A
:1043900037009DF93700002105F040FAFFE743F2AE
:1043A0001150C2F20000C078002800F09D80FFE7A5
:1043B0009DF9370001460C910B2800F284800C997E
:1043C000DFE801F006074344455667727D7E7F8033
:1043D0007DE09DF83500C007B0B3FFE743F67020DD
:1043E000C2F200000B9090F828100120884301F0E1
:1043F0000BFA0B9890F82800C00748B1FFE741F28C
:104400000000C4F201004FF4006107F00FF91AE058
:1044100043F67020C2F2000090F8270090B9FFE741
:1044200043F67020C2F2000090F82800C00748B997
:10443000FFE741F20000C4F201004FF4006107F011
:10444000EDF8FFE7FFE7FFE741E040E03FE09DF8E0
:104450003500C00758B1FFE743F67020C2F20000F4
:1044600090F82C100120884301F098F9FFE72EE026
:104470009DF83500C00758B1FFE743F67020C2F23F
:10448000000090F829100120884301F063F8FFE74D
:104490001DE043F67020C2F2000090F82A100120BF
:1044A000884301F09DF912E043F67020C2F200004B
:1044B00090F82B100120884301F06AF807E006E02D
:1044C00005E004E003E000208DF83700FFE79DF9E8
:1044D000370000210A9105F0A1F90A9843F2115121
:1044E000C2F20001C870FFE743F21850C2F20000A8
:1044F00090F90000002800F0FF80FFE79DF93700E9
:10450000014609910B2800F2E6800999DFE801F0E5
:10451000064E4F6B868788898AA9C7E243F67020CA
:10452000C2F20000089090F8270043F21851C2F23E
:10453000000191F9001042180020012107F08AFBC8
:104540000146089880F8271090F82700012809D123
:10455000FFE741F20000C4F201004FF4006107F0F0
:1045600065F81AE043F67020C2F2000090F82700C8
:1045700090B9FFE743F67020C2F2000090F82800DF
:10458000C00748B9FFE741F20000C4F201004FF450
:10459000006107F043F8FFE7FFE743F67020C2F23F
:1045A000000090F8270000F0BDFF98E097E043F688
:1045B0007020C2F20000079090F8330043F21851C7
:1045C000C2F2000191F9001042180020032107F007
:1045D00041FB079981F8330091F8330081F83400EA
:1045E00001F05CFA7BE043F67020C2F20000069016
:1045F00090F8320043F21851C2F2000191F9001014
:1046000042180120022107F025FB0146069880F898
:10461000321090F8320000F0CFFF60E05FE05EE023
:104620005DE05CE043F67020C2F200000590C17CC2
:104630002D300490405C43F21851C2F2000191F910
:10464000001042180020032107F004FB04990246E1
:104650000598C37CCA54C07C0A5C114601F036F947
:104660003DE043F67020C2F200000290C17C35307C
:104670000390405C43F21851C2F2000191F900101E
:1046800042180020042107F0E5FA02990246039837
:10469000CB7CC254C97C405C01F066FA1FE043F653
:1046A0007020C2F20000019090F8300043F21851DF
:1046B000C2F2000191F9001042180020042107F015
:1046C000C9FA0146019880F8301090F8300000F0E7
:1046D00085FF04E003E000208DF83700FFE79DF937
:1046E00037000021009105F099F8009843F2185125
:1046F000C2F200010870FFE743F21150C2F200005D
:10470000007818B1FFE706F04BFF02E005F0DCFC93
:104710000AE60EB080BD000080B58AB000208DF89A
:1047200027009DF92700012105F040FBFFE743F238
:104730001150C2F200004078B0B1FFE743F21151CE
:10474000C2F20001002048709DF9270008B9FFE778
:10475000EDE79DF8270001388DF827009DF9270027
:10476000002105F023FBFFE743F21150C2F20000E5
:104770008078B8B1FFE743F21151C2F20001002086
:1047800088709DF92700052801D1FFE7CFE79DF844
:10479000270001308DF827009DF92700002105F042
:1047A00005FBFFE743F21150C2F20000C07828B3C6
:1047B000FFE79DF927000146089105280DD80899C3
:1047C000DFE801F00304050607080AE009E008E055
:1047D00007E006E000F074FB03E000208DF82700FE
:1047E000FFE79DF927000021079105F0DFFA079800
:1047F00043F21151C2F20001C870FFE743F21850B2
:10480000C2F2000090F90000002800F07880FFE775
:104810009DF927000146069105285FD80699DFE833
:1048200001F003172B3F5B5C43F67020C2F20000DF
:104830000590C07B43F21851C2F2000191F90010BB
:1048400042180020032107F005FA0599C87349E0D2
:1048500043F67020C2F200000490407B43F21851EE
:10486000C2F2000191F9001042180020012107F066
:10487000F1F90499487335E043F67020C2F2000064
:104880000390807B43F21851C2F2000191F90010AD
:10489000421805203C2107F0DDF90399887321E0D7
:1048A00043F67020C2F20000029090F9100043F22B
:1048B0001851C2F2000191F90010421809200A2192
:1048C00007F0C8F9014602980174007C40F25411C7
:1048D000C2F20001887005E004E003E000208DF8DA
:1048E0002700FFE79DF927000021019105F05EFAFE
:1048F000019843F21851C2F200010870FFE743F239
:104900001150C2F20000007818B1FFE706F048FE2F
:1049100002E005F0D9FB0AE70AB080BD704700004D
:10492000BFF34F8F4EF60C51CEF20001086800F431
:10493000E0600422C0F2FA5210430860BFF34F8FC8
:10494000FFE7FEE77047000080B586B00590059947
:1049500043F2C070C2F200000390016002680021BF
:104960000491518043F2B662C2F2000211800268E3
:104970001171006805300821009120220292FCF795
:104980002BFE0099029A0398049BD0F800C08CF883
:104990000D3000680E30FCF71FFE029A0398049950
:1049A000036899750368D975006818304021019132
:1049B000FCF712FE0199029A039800685930FCF73F
:1049C0000BFE039904980A6882F858000A6882F876
:1049D00099000A6882F89D000B68FF2283F89B20EB
:1049E0000B6883F89C200B6883F89E200B6883F883
:1049F0009F200968087006B080BD000080B588B0AF
:104A000043F2C070C2F200000790026800210691D4
:104A1000518043F2B662C2F2000211800268117145
:104A2000006805300821049120220592FCF7D4FD8E
:104A30000499059A069B0798D0F800C08CF80D30B1
:104A400000680E30FCF7C8FD06990798026891755A
:104A50000268D175026882F89D10006890F99B0089
:104A600000280ADCFFE743F2C070C2F200000068D1
:104A700090F99C0001281DDBFFE743F2C070C2F2F1
:104A8000000003900068183040210191202202921A
:104A9000FCF7A2FD0199029A039800685930FCF7CF
:104AA0009BFD03990A68FF2082F89B00096881F842
:104AB0009C00FFE743F2C070C2F200000268FF21D1
:104AC00082F89E10026882F89F100168002008702A
:104AD00008B080BD7047000080B586B0049000200B
:104AE000ADF80E000498FCF749FB012830D1FFE730
:104AF00004980621FCF72CFB8DF80C000498022189
:104B00000091FCF725FB00998DF80D0003A801909A
:104B1000FCF78AFD014601988DF80B109DF80B10EB
:104B2000405C00280FDCFFE79DF80B0028B9FFE789
:104B300004984088ADF80E0004E00498C088ADF8F1
:104B40000E00FFE703E00020ADF8160034E010E0AF
:104B500004980621FCF7FCFA002805DCFFE704981E
:104B60004088ADF80E0003E00020ADF8160023E009
:104B7000FFE7BDF80E0043F2B661C2F200010988FA
:104B8000884214D0FFE7BDF80E0043F2B661C2F2CE
:104B90000001088043F2C070C2F200000268117880
:104BA00041F001011170016801200871FFE7BDF8B3
:104BB0000E00ADF81600FFE7BDF8160006B080BD88
:104BC00080B582B0019000218DF803100198808893
:104BD00000F003008DF803000198FCF7B9FA0028F3
:104BE00018DCFFE70198417A43F2C070C2F200007E
:104BF00002689DF8033002EB430291730199098921
:104C000002689DF8033002EB4302D1730168002073
:104C10008875FFE700208DF80200FFE79DF802008D
:104C200007282FDCFFE743F2C070C2F200000068E3
:104C30009DF802201044807B43F2D541C2F200016E
:104C4000895C884217D0FFE743F2C070C2F20000CF
:104C50000268117841F00401117002680121D175D8
:104C600000689DF802201044807B43F2D541C2F2D7
:104C700000018854FFE7FFE79DF8020001308DF83E
:104C80000200CBE702B080BD80B586B00590002061
:104C90008DF813000598808800F00F008DF8130040
:104CA00005988088C0F3001043F2C071C2F2000181
:104CB000096881F89D000598FCF760FA002840F02B
:104CC0008380FFE705980221FCF742FA002839DCCF
:104CD000FFE70598C07943F2C071C2F20001039169
:104CE0000A6892F89D3003EB83131A449DF8133041
:104CF00002EB830210760598C0880A6892F89D300E
:104D000003EB83131A449DF8133002EB83025076B1
:104D10009DF8130080000230096891F89D2011442D
:104D200091F99B100FF0D4FB01460398026892F8AA
:104D30009D301A4482F89B100168087840F0080002
:104D40000870FFE705980021FCF702FA00283ADC1A
:104D5000FFE70598407A43F2C071C2F20001029168
:104D60000A6892F89D3003EB83131A449DF81330C0
:104D700002EB83029076059800890A6892F89D30CC
:104D800003EB83131A449DF8133002EB8302D076B1
:104D90009DF81320042000EB8200096891F89D2003
:104DA000114491F99B100FF093FB014602980268A1
:104DB00092F89D301A4482F89B100168087840F000
:104DC00008000870FFE741E005980021FCF7C0F9F2
:104DD00000283ADCFFE70598407A43F2C071C2F23E
:104DE000000101910A6892F89D3003EB83131A4485
:104DF0009DF8133002EB43021076059800890A688B
:104E000092F89D3003EB83131A449DF8133002EBA4
:104E1000430250769DF81320022000EB42000968FF
:104E200091F89D20114491F99B100FF051FB014620
:104E30000198026892F89D301A4482F89B1001682C
:104E4000087840F008000870FFE7FFE706B080BD73
:104E50007047000080B54FF440700FF097FC13F0DE
:104E600079FD40F202600FF021FF40F203600FF085
:104E70001DFF40F204600FF019FF40F205600FF0D3
:104E800015FF4FF4C0600FF011FF40F204700FF0F7
:104E90000DFF40F205700FF009FF40F209600FF0BE
:104EA00005FF07200FF0B0FD40F21D700FF0FEFE71
:104EB00040F20E600FF0FAFE052006F079F880BD92
:104EC00080B58EB0002005908DF834000C908DF8E0
:104ED0002F00ADF82C00ADF82A00ADF8280043F6FD
:104EE0007021C2F2000106910A4612F8123FADF895
:104EF0002630BDF8263002EB43025288ADF824205C
:104F0000CA7C114491F821108DF82310ADF82000CF
:104F10008DF81F0043F20051C2F200010120087019
:104F200000F0AAFC05990698BDF8262040F2581C0E
:104F3000C2F2000CCC2302FB03C25170C07C20B92A
:104F4000FFE7032000F07EFC03E0062000F07AFC7F
:104F5000FFE7BDF8260040F6F811C0F6020131F86F
:104F6000102040F6F011C0F6020131F8101040F2A6
:104F7000581CC2F2000CCC2300FB03C04378EC4663
:104F80000120CCF800001046FDF70CFB43F6702022
:104F9000C2F20000807C032840F0C880FFE743F69F
:104FA0007020C2F20000407B002800F0BF80FFE7C5
:104FB00000208DF82F00FFE79DF82F000D2800F34B
:104FC000B480FFE79DF82F1040F61820C0F60200CD
:104FD00030F82100ADF820000020ADF82C00FFE7EC
:104FE000BDF82C009DF82F3040F61822C0F60202C2
:104FF00002EB8301498832F82320891ABDF8263054
:1050000040F25412C2F20002D25C91FBF2F18842EB
:105010006DDAFFE7BDF82000022101F055FC07F032
:10502000A7FC8DF81F009DF81F00C007D8B1FFE74F
:10503000BDF82000BDF8263040F25812C2F200023E
:10504000CC2103FB012393F801C003EB4C039880B0
:10505000BDF8260000FB012148780130487000208F
:105060008DF81F00FFE740F61821C0F602010888FE
:10507000C98EBDF82020BDF8263040F2581EC2F27D
:10508000000E4FF0CC0C03FB0CE35B78EE464FF0C8
:10509000000CCEF800C0FDF785FABDF82000BDF881
:1050A000262040F25411C2F20001895C0844ADF898
:1050B000200043F21150C2F20000007878B9FFE7F7
:1050C000BDF8262040F25811C2F20001CC2302FBA9
:1050D00003105A434078895C884201D1FFE706E01B
:1050E000FFE7BDF82C000130ADF82C0078E743F263
:1050F0001150C2F20000007878B9FFE7BDF8262011
:1051000040F25811C2F20001CC2302FB03105A43B3
:105110004078895C884201D1FFE706E0FFE79DF80F
:105120002F0001308DF82F0046E7D0E0BDF82600B3
:10513000A0B9FFE743F67021C2F20001CA7B40F636
:105140000820C0F6020030F82220ADF82A20C97BE2
:1051500000EB81004088ADF828002BE0BDF8260068
:10516000022811D1FFE740F25410C2F2000080780B
:105170000A2809D1FFE740F21220ADF82A0040F2D8
:10518000AE60ADF8280014E0BDF8261040F6F81027
:10519000C0F6020030F81100ADF82A00BDF8261064
:1051A00040F6F010C0F6020030F81100ADF828000B
:1051B000FFE7FFE7BDF82A00ADF820000020ADF8BA
:1051C0002C00FFE7BDF82C00BDF82810BDF82A2000
:1051D000891ABDF8263040F25412C2F20002D25CA5
:1051E00091FBF2F1884271DAFFE7BDF8200002215D
:1051F00001F06AFB07F0BCFB8DF81F009DF81F0053
:10520000C007D8B1FFE7BDF82000BDF8263040F256
:105210005812C2F20002CC2103FB012393F801C013
:1052200003EB4C039880BDF8260000FB0121487871
:105230000130487000208DF81F00FFE7BDF82A00FC
:10524000BDF82810BDF82020BDF8263040F2581EC9
:10525000C2F2000E4FF0CC0C03FB0CE35B78EE4681
:105260004FF0000CCEF800C0FDF79CF9BDF820000F
:10527000BDF8262040F25411C2F20001895C0844B6
:10528000ADF8200043F21150C2F20000007878B966
:10529000FFE7BDF8262040F25811C2F20001CC23EE
:1052A00002FB03105A434078895C884207D1FFE72C
:1052B00043F21151C2F200010020087006E0FFE73E
:1052C000BDF82C000130ADF82C007BE7FFE7BDF8FE
:1052D000260040F25812C2F20002CC2100FB01214C
:1052E0000020049088709DF8230000F0ABFABDF810
:1052F0002400012101F0E8FA049800F0BDFA0498B6
:1053000043F20051C2F20001087043F21150C2F2A0
:1053100000000078B8B1FFE769460320C8600020AC
:10532000886040F21400C2F20000486040F6A770A6
:10533000C0F602000860622036214FF0FF331A46A3
:10534000FDF7ACF916E069460320C86000208860CC
:1053500040F21400C2F20000486040F6A270C0F6AD
:1053600002000860622036214FF0FF331A46FDF735
:1053700095F9FFE79DF8260010F0B6FC06F010F94D
:105380000EB080BD80B58AB08DF8270043F2005181
:10539000C2F2000101200690087000208DF826005E
:1053A00043F67020C2F200000790014611F8122F58
:1053B00001EB42014988ADF82410BDF82410ADF886
:1053C0002210C17C084490F821008DF82100FFF7DD
:1053D00015FB069800F050FA0798C07C20B9FFE74B
:1053E000032000F02FFA03E0062000F02BFAFFE77D
:1053F000FFE79DF82600C007002878D1FFE743F2B9
:105400001850C2F2000090F90000F0B1FFE743F23B
:105410001851C2F200010020059008709DF821008B
:1054200000F010FABDF822000121049101F04CFABD
:10543000049802F0B3FF059800F01EFA059843F2B5
:105440000051C2F20001087069E0BDF822309DF9F8
:10545000270043F67021C2F2000191F812C040F219
:105460005412C2F2000212F80C2010FB0230ADF808
:105470002200BDF822008A7C40F6F011C0F602013D
:1054800031F91210884210DCFFE7BDF8220043F624
:105490007021C2F200018A7C40F6F811C0F60201C8
:1054A00031F91210884218DAFFE79DF8210000F068
:1054B000C9F9BDF824000121029101F005FA029812
:1054C00002F06CFF0020039000F0D6F9039843F23D
:1054D0000051C2F20001087021E0BDF82200022153
:1054E00001F0F2F907F044FA8DF8260081E79DF803
:1054F000210000F0A7F9BDF822000121009101F080
:10550000E3F9009802F04AFF0020019000F0B4F99E
:10551000019843F20051C2F200010870FFE70AB09F
:1055200080BD000080B582B08DF807009DF80700AF
:10553000022801DBFFE70BE09DF8070043F6B021EE
:10554000C2F20001096881F8270000F0DFFBFFE7E5
:1055500002B080BD80B582B08DF8070043F6B02060
:10556000C2F20000006890F8200008B9FFE70DE0E3
:105570009DF8070043F6B021C2F20001096800F06F
:10558000010081F8290000F0F1F9FFE702B080BDC9
:1055900080B582B08DF807009DF8070043F6B02172
:1055A000C2F20001096800F0010081F82B0000F050
:1055B000DDF902B080BD000080B582B08DF8070033
:1055C0009DF8070043F6B021C2F20001096881F896
:1055D000320000F063FA02B080BD000080B58CB0EC
:1055E0008DF82F009DF82F00052801DBFFE7D3E0A1
:1055F00000208DF82C000A909DF82F0043F6B02172
:10560000C2F200010891096881F8300000F046FA02
:1056100008980068C07C08B1FFE7BDE043F6B02001
:10562000C2F20000006890F82C00C007002800F0CB
:105630009980FFE70220069019210022079200F0CE
:1056400007FD0698079A792100F002FD0698079A4F
:105650001D2100F0FDFC0698079A7D2100F0F8FC62
:1056600007980990FFE7099801287ADCFFE7099875
:10567000000101308DF828009DF82F0000EBC001DB
:105680004CF68A60C0F601000390415C8DF8291049
:105690009DF82F1001EBC101014449788DF82A10C3
:1056A0009DF82F1001EBC101014489788DF82B1072
:1056B0009DF82F1001EBC1010844C0788DF82C0033
:1056C000C72004900AA905910522029200F096FCD9
:1056D000029A039B04980599DDF824C04FEA0C1C3C
:1056E0000CF1020C8DF828C09DF82FC00CEBCC0CEF
:1056F0009C449CF804C08DF829C09DF82FC00CEB89
:10570000CC0C9C449CF805C08DF82AC09DF82FC095
:105710000CEBCC0C9C449CF806C08DF82BC09DF87B
:105720002FC00CEBCC0C6344DB798DF82C3000F0EF
:1057300065FC039A04980599099B1B0103338DF8B6
:1057400028309DF82F3003EBC3031A44127A8DF8EA
:105750002920022200F052FCFFE70998013009904D
:1057600081E719E09DF82F00C0EBC00140F67120E1
:10577000C0F602000090014418200722019200F0B8
:105780003DFC0098019A9DF82F10C1EBC101014426
:10579000782000F033FCFFE70CB080BD80B582B00C
:1057A0008DF8070043F6B020C2F20000006890F8C0
:1057B000200008B9FFE710E09DF8071043F6B0207D
:1057C000C2F20000026801F0010182F82C100068AA
:1057D00090F83000FFF702FFFFE702B080BD000045
:1057E00080B582B08DF807009DF8070043F6B02120
:1057F000C2F20001096800F0010081F82A0000F0FF
:10580000B5F802B080BD000080B582B08DF8070009
:1058100043F6B020C2F20000006890F8200008B9FA
:10582000FFE70DE09DF8070043F6B021C2F200014A
:10583000096800F0010081F8280000F067FAFFE72E
:1058400002B080BD80B582B08DF807009DF80700DA
:10585000102801DBFFE70DE09DF8070043F6B021BB
:10586000C2F200010968CA7C114481F8210000F0ED
:1058700031FAFFE702B080BD80B582B08DF8070035
:105880009DF8071043F6B020C2F20000026801F054
:105890000101D1700068C078C00728B1FFE700207F
:1058A000012111F087F80EE043F6B020C2F20000AB
:1058B0000068C078C00728B9FFE70021084611F04A
:1058C00079F8FFE7FFE702B080BD000080B582B045
:1058D0008DF807008DF806108DF805209DF806005C
:1058E000032805DCFFE79DF80500042801DBFFE73E
:1058F00013E09DF8060043F6B021C2F200010A68E9
:105900009DF807301A4482F82D009DF805000968BB
:1059100081F82F0000F02AF8FFE702B080BD0000F8
:1059200080B582B08DF807008DF8061000208DF844
:10593000050043F6B020C2F200000068C07C08B148
:10594000FFE711E09DF807109DF8060000EB8101CC
:105950009DF8050008438DF8050007200DF10501AD
:10596000012200F04BFBFFE702B080BD80B582B0A2
:1059700000208DF8070043F6B020C2F20000006856
:10598000C07C002860D1FFE743F6B020C2F20000DF
:10599000006890F82A00C00738B1FFE79DF80700BB
:1059A00040F080008DF8070006E09DF8070000F049
:1059B0007F008DF80700FFE743F6B020C2F2000039
:1059C000006890F82B00C00738B1FFE79DF807008A
:1059D00040F040008DF8070006E09DF8070000F059
:1059E000BF008DF80700FFE743F6B020C2F20000C9
:1059F000006890F82900C00738B1FFE79DF807005C
:105A000040F020008DF8070006E09DF8070000F048
:105A1000DF008DF80700FFE743F6B020C2F2000078
:105A20000068C17C084490F82D0000F003019DF847
:105A3000070040EA81008DF807009DF8070040F05C
:105A400002008DF8070021E09DF8070040F04000BB
:105A50008DF8070043F6B020C2F200000168CA7C4E
:105A6000114491F82D1001F003029DF8071041EA4E
:105A700082018DF80710006890F82F0000F00301F4
:105A80009DF8070008438DF80700FFE705200DF19A
:105A90000701012200F0B2FA02B080BD80B584B0E7
:105AA00000208DF80F0043F6B020C2F2000000681D
:105AB000C07CC0BBFFE743F6B020C2F20000006824
:105AC00090F83100C00748B9FFE743F6B020C2F2B2
:105AD0000000006890F8300038B9FFE79DF80F002B
