:020000040800F2
:10000000406E002045010008DD500008DD31000889
:10001000C53800085112000825AC00080000000097
:100020000000000000000000000000008D570008E4
:100030009D1400080000000005510008796B0008BD
:100040005F0100085F0100085F01000879520008A5
:100050005F0100085F0100085F0100085F01000800
:100060005F0100085F0100085F0100085F010008F0
:100070005F0100085F0100085F010008F913000834
:100080005F0100085F010008A50900085F01000882
:100090005F0100085F0100085F0100085F010008C0
:1000A0005F0100085F0100085F0100085F010008B0
:1000B0005F0100085F0100085F0100085F010008A0
:1000C0005F0100085F0100085F0100085F01000890
:1000D0005F0100085F0100085F0100085F01000880
:1000E0005F0100085F0100085F0100085F01000870
:1000F0005F0100085F0100085F0100085F01000860
:100100005F0100085F0100085F0100085F0100084F
:100110005F0100085F0100085D6C00087D6C00084D
:100120005F0100085F0100085F0100085F0100082F
:10013000DFF80CD000F000FC00480047B94401088B
:10014000406E00200648804706480047FEE7FEE76D
:10015000FEE7FEE7FEE7FEE7FEE7FEE7FEE7FEE777
:100160007D6B00083101000800487047FCB40108AD
:1001700040EA01039B0703D009E008C9121F08C029
:10018000042AFAD203E011F8013B00F8013B521EA9
:10019000F9D27047D2B201E000F8012B491EFBD220
:1001A00070470022F6E710B513460A460446194682
:1001B000FFF7F0FF204610BD30B50446002003468F
:1001C00000E05B1C934203D2E05CCD5C401BF8D0A6
:1001D00030BD30B503461D783DB10A4612F8014BDB
:1001E0001CB1AC42FAD15B1CF5E7181A30BD30B532
:1001F0000546002008E00A4602E0A34207D0521C50
:100200001378002BF9D1401C2C5C002CF3D130BDAD
:100210002DE9FE4F804681EA0300C00F0C46009096
:1002200021F0004123F00045B8EB0200A94105D2BE
:100230004046214690461C460B46024623F00040AD
:10024000104347D0270DC7F30A00C3F30A510290A9
:10025000401A019040286BDAC3F3130040F4801B6E
:100260000098924620B10023D2EB030A63EB0B0BFC
:1002700001985946C0F14002504600F048FA06463F
:100280000D4650465946019A00F060FA10EB0800FE
:100290006141002487EA115284EAE7731A4340D08F
:1002A000009A62B3019A012A4FEA075215DC001B3B
:1002B00061EB02014FF0004202EA0752CDE9004231
:1002C000001C41F5801132462B4600F0B5FA03B010
:1002D000BDE8F08F40462146F9E7001B61EB0201C3
:1002E000001C41F5801300185B412018A2F500178F
:1002F00047EB030140EAD570B6196D4111E06D0876
:100300004FEA360645EAC0754FEA0752001B61EB1B
:100310000201001C41F5801149084FEA3000001924
:10032000514132462B4603B0BDE8F04F00F075BA9C
:100330000098012240000023D0EB020263EBE0733F
:10034000009821464FEAE074B8EB000061EB04012D
:10035000E9E783F000435BE781F0004158E72DE9CE
:10036000FE4F81EA030404F0004421F000410094B0
:100370004FF0000B23F0004350EA01045ED052EA34
:1003800003045BD0C3F30A54C1F30A552C44A4F20E
:10039000F3340194A0FB0254C1F3130141F4801122
:1003A000C3F3130343F4801301FB024400FB034E29
:1003B000840A970A44EA815447EA8357A4FB0768F2
:1003C00002958D0A05FB07854FEA932C04FB0C541C
:1003D0002705029D4FEA065847EA1637B5EB080590
:1003E0006EEB070C870E920E47EA811742EA8312E2
:1003F000A7FB0201B6EB0B0164EB00042B0D43EAF3
:100400000C335E1844EB1C50DA465146E7FB020100
:10041000C5F313044FEA0B3343EA14534FEA043293
:10042000019C43EA0603A4F10C040294009CCDE96C
:1004300000B400F001FA03B0BDE8F08F00200146DF
:10044000F9E72DE9F04D81EA030404F0004B21F0B7
:10045000004514464FF0000A23F0004150EA05021F
:1004600020D054EA01021DD0C5F30A570246C5F355
:100470001303C1F31300C1F30A5640F4801543F48B
:100480008013A7EB0608101BD64608F2FD3873EB65
:10049000050002D308F1010801E092185B41B8F1B0
:1004A000000F03DA00200146BDE8F08D00204FF474
:1004B0008011064684460EE0171B73EB050705D333
:1004C000121B63EB050306434CEA010C49084FEA93
:1004D000300092185B4150EA0107EDD152EA030067
:1004E00012D082EA040083EA0501084305D0101BFC
:1004F000AB4106D20122002306E000224FF0004368
:1005000002E06FF0010253101AEB06004CEB0851A9
:1005100010EB0A0041EB0B01BDE8F04D00F07DB996
:1005200030B5041E71F1000404DB4FF0004440427A
:1005300064EB0101141E73F1000405DB1C464FF04F
:100540000043524263EB0403801A994101D3012016
:1005500030BD002030BD30B5041E71F1000404DB55
:100560004FF00044404264EB0101141E73F100049B
:1005700005DB1C464FF00043524263EB0403101AA4
:100580008B4101D2012030BD002030BD30B5041EAA
:1005900071F1000404DB4FF00044404264EB0101C0
:1005A000141E73F1000405DB1C464FF00043524259
:1005B00063EB0403101A8B4101D3012030BD0020EE
:1005C00030BD0EB5C10F80EAE0700844CA070021B3
:1005D00040F233438DE80E000A460B4600F02CF93A
:1005E00003B000BD70B5C1F30A5201F0004500240C
:1005F000C1F3130140F2FF3341F480119A4201DA52
:10060000002070BD40F233439A42A2F2334203DC31
:10061000524200F08BF800E090402C43F1D0404271
:1006200070BD00F0004230F000400AD0C10D01F56D
:100630006071C0F3160042EA0151C208400711433D
:10064000704700200146704701F0004330B421F0AC
:10065000004150EA010206D00A0DA2F56072C1F312
:100660001301002A02DC30BC00207047440F44EA2A
:10067000C104C100E01830BC00EBC25000F078B8F3
:1006800030B50B46014600202022012409E021FA62
:1006900002F59D4205D303FA02F5491B04FA02F55F
:1006A0002844151EA2F10102F1DC30BD2DE9F05FF6
:1006B0000546002092469B468846064681464024D1
:1006C0001BE0284641464746224600F02FF8534695
:1006D0005A46C01A914110D311461846224600F0DE
:1006E00016F82D1A67EB01084F462246012000211B
:1006F00000F00DF817EB00094E41201EA4F1010493
:10070000DFDC484631462A464346BDE8F09F202AB2
:1007100004DB203A00FA02F1002070479140C2F158
:10072000200320FA03F3194390407047202A04DB8A
:10073000203A21FA02F00021704721FA02F3D0405A
:10074000C2F120029140084319467047202A06DB77
:10075000CB17203A41FA02F043EAE07306E041FA8F
:1007600002F3D040C2F1200291400843194670477D
:100770000029A8BF7047401C490008BF20F00100B5
:10078000704710B4B0FA80FC00FA0CF050EA010493
:1007900004BF10BC704749B1CCF1200421FA04F425
:1007A00011FA0CF118BF012121430843A3EB0C01FE
:1007B000CB1D4FEA00614FEA102042BF002010BC61
:1007C000704700EBC35010440029A4BF10BC704711
:1007D000401C490008BF20F0010010BC704710B554
:1007E00041000CD0C0F3C751962908DC7E2909DCF2
:1007F00006DB410204D000F0004040F07E5010BD06
:10080000002010BDC1F19604C4F1200100FA01F1ED
:10081000E040FFF7ADFFA04010BD10B5141E73F10E
:10082000000408DA401C41F1000192185B411A43B0
:1008300001D120F0010010BD2DE9F04D92469B46FC
:1008400011B1B1FA81F202E0B0FA80F220329046A2
:10085000FFF75DFF04460F4640EA0A0041EA0B013C
:1008600053465A46084313D0114653EA010019D0A3
:10087000C8F140025046FFF759FF05460E46504664
:1008800059464246FFF743FF084305D0012004E0E4
:1008900020463946BDE8F08D0020054346EAE07663
:1008A0002C4337430A986305E40AA0EB08000022B2
:1008B000FD0A44EA47540A3002D500200146E9E720
:1008C000010510196941DDE9084500196941BDE8D4
:1008D000F04DA2E7C1F30A52C1F3130140F2FF3316
:1008E00041F480119A4202DA00200146704740F23A
:1008F00033439A42A2F2334202DC5242FFF716BF60
:10090000FFF705BF30B5041E71F1000404DB4FF0A2
:100910000044404264EB0101141E73F1000405DB46
:100920001C464FF00043524263EB0403994208BF58
:10093000904230BD002070471CB50948009009481E
:1009400001900546009C06E0E06840F0010394E851
:10095000070098471034AC42F6D3FFF7EDFB0000D8
:10096000C0330208E033020830B58C1810F8012BB0
:1009700012F00F0301D110F8013B120906D110F853
:10098000012B03E010F8015B01F8015B5B1EF9D15C
:1009900001E001F8013B521EFBD1A142E6D3002049
:1009A00030BD000080B542F20040C4F201000221D7
:1009B0000AF010FD28B1FFE70020522100F010F8E6
:1009C000FFE742F20040C4F2010004210AF002FDF8
:1009D00028B1FFE70020492100F002F8FFE780BDC1
:1009E00080B586B08DF817008DF816100020ADF890
:1009F0001400ADF812009DF81700002840F02F8178
:100A0000FFE79DF81600522840F09180FFE742F280
:100A10000040C4F201000AF0F9FDADF81400BDF881
:100A2000140040F6775188420BDCFFE7BDF8140054
:100A3000B0F53E6F05DBFFE70021084602F08CFDB4
:100A400062E0BDF8140040F6D32188420CDCFFE7D9
:100A5000BDF8140040F63C11884205DBFFE7012099
:100A6000002102F079FD4EE0BDF8140040F246711D
:100A700088420CDCFFE7BDF8140040F2AF51884219
:100A800005DBFFE70220002102F066FD3AE0BDF839
:100A90001400B0F5667F0BDCFFE7BDF81400B0F57D
:100AA000007F05DDFFE70320002102F055FD28E06F
:100AB000BDF81400CC2805DCFFE70520002102F07A
:100AC0004BFD1DE0BDF8140040F63371884216DB83
:100AD000FFE700200121039102F03EFD0399084643
:100AE00002F03AFD0399022002F036FD039903203B
:100AF00002F032FD0399052002F02EFDFFE7FFE72B
:100B0000FFE7FFE7FFE7FFE740F60000C4F2010060
:100B100001210BF0B5FC0146042002F01DFD42F25C
:100B20000040C4F2010002210AF04AFC96E09DF860
:100B30001600492840F09180FFE742F20040C4F2DD
:100B40000100029000210AF0EDFBADF81200BDF8A3
:100B5000120000EE100AB8EE400A10EE100AFFF77D
:100B600060FD41EC100B9FED401B53EC112B51EC41
:100B7000100BFFF7F4FB41EC100B51EC100B9FED49
:100B80003C0B53EC102BFFF75CFC41EC100B51ECD1
:100B9000100BFFF727FD40F2B471C2F20001019182
:100BA000888541F20000C4F2010008210BF082FBAD
:100BB000029801210AF0B6FBADF81200BDF8120050
:100BC00000EE100AB8EE400A10EE100AFFF729FDF9
:100BD00041EC100B9FED281B53EC112B51EC100B2B
:100BE000FFF7BDFB41EC100B51EC100B9FED240BFC
:100BF00053EC102BFFF7B3FB41EC100B51EC100B37
:100C00009FED210B53EC102BFFF702FB41EC100B77
:100C100051EC100B9FED1E0B53EC102BFFF711FC4A
:100C200041EC100B51EC100B9FED1B0B53EC102BF8
:100C3000FFF7EEFA41EC100B51EC100BFFF704FD3F
:100C400000EE100A14F04EFA019A0146029882F85A
:100C50002E1004210AF0B4FBFFE7FFE7FFE706B020
:100C600080BD00BF00BF00BF000000000025B140F4
:100C7000000000000000E4406666666666660AC022
:100C8000000000000000303F333333333333F73F8D
:100C9000091B9E5E29CB703F000000000000394018
:100CA00080B586B042F20040C4F2010005900AF01F
:100CB00011FA002002900AF0DFFB05984FF48071D2
:100CC000012201920AF0C8FC029905980AF0EEF997
:100CD000019A059811460AF0B1F902990598022285
:100CE000039206230AF0D8FB019905984FF460227D
:100CF0000AF076FA019A059811460AF035FA039A35
:100D0000059811460AF09AF9029905980C220723D2
:100D100000930AF08FFA009B0199059810220AF0BF
:100D200089FA039905984FF4E0420AF059FA019ABA
:100D3000039905980AF018FA029A1220032114F078
:100D400053FA039905980AF03BFB05980421049196
:100D50000AF036FB039905980AF00AFB04990598F6
:100D60000AF006FB05980AF0EFF905200AF06CFF7F
:100D700005980AF045F90AF0C3FC06B080BD0000F2
:100D800080B582B043F6E450C2F20000807CADF83A
:100D90000400BDF8042040F25811C2F200014FF4E3
:100DA000CA7302FB03105A434078895C884204DB13
:100DB000FFE700208DF8070017E1BDF8040040F2BE
:100DC0005812C2F200024FF4CA7100FB01204078B1
:100DD00038BBFFE7BDF8043043F6E450C2F2000030
:100DE00000EB4300808A40F25812C2F200024FF436
:100DF000CA7103FB01239880BDF8040000FB0123A6
:100E0000587801305870BDF8040000FB0121002023
:100E100088709DF8040015F0CBFD01208DF80700C7
:100E2000E3E000208DF80300BDF8040040F2581202
:100E3000C2F200024FF4CA7100FB01204078013871
:100E40008DF80300FFE79DF80300002800F1B8804B
:100E5000FFE7BDF8041043F6E450C2F2000000EBD7
:100E60004100808A40F25813C2F200034FF4CA7264
:100E700001FB02319DF8032001EB42018988884281
:100E800011D1FFE79DF80300BDF8041040F258139C
:100E9000C2F200034FF4CA7201FB023188700120D4
:100EA0008DF80700A1E0BDF8041043F6E450C2F24B
:100EB000000000EB4100808A40F25813C2F20003A8
:100EC0004FF4CA7201FB02319DF8032001EB42018D
:100ED0008988884211DAFFE7BDF8040040F2581211
:100EE000C2F200024FF4CA7100FB01209DF803100A
:100EF00000EB41018888C88038E0BDF8041043F653
:100F0000E450C2F2000000EB4100808A40F2581326
:100F1000C2F200034FF4CA7201FB02319DF80320B4
:100F200001EB4201898888421FDDFFE7BDF804100C
:100F300043F6E450C2F2000000EB4100808A40F228
:100F40005813C2F200034FF4CA7201FB02319DF83C
:100F500003C001EB4C01C8809DF803000130BDF8CF
:100F6000041001FB023188702AE0FFE7FFE79DF8DB
:100F70000300F0B9FFE7BDF8041043F6E450C2F2F5
:100F8000000000EB4100808A40F25813C2F20003D7
:100F90004FF4CA7201FB02319DF803C001EB4C0112
:100FA00088809DF80300BDF8041001FB02318870B1
:100FB00006E0FFE79DF8030001388DF8030042E7E3
:100FC000BDF8040040F25812C2F200024FF4CA7198
:100FD00000FB01214878013048709DF8040015F0AD
:100FE000E7FC01208DF80700FFE79DF8070002B03D
:100FF00080BD000080B582B08DF8070043F6E45054
:10100000C2F20000C17C084490F821008DF806006F
:101010009DF807109DF8060008448DF806009DF91C
:10102000062000200F210BF061FC8DF806009DF8D2
:10103000060005F0EDF802B080BD000080B582B07A
:101040008DF8070043F6E450C2F2000010F812CF0A
:10105000009000EB4C014B889DF9071040F23412D0
:10106000C2F2000202EBCC0284449CF80AC032F8BF
:101070001C2001FB0231ADF80410027841F2F4703B
:10108000C0F6020030F9120041F2EC71C0F6020124
:1010900031F91210BDF804200BF028FC014600982D
:1010A000ADF80410407830B9FFE7BDF80400042122
:1010B00006F0E2F805E0BDF80400012106F0DCF8D6
:1010C000FFE704F075F802B080BD000080B582B083
:1010D0008DF8070043F6E450C2F200008178405CCE
:1010E0008DF806009DF906009DF9071000EB4102FE
:1010F000002064210BF0FAFB8DF806009DF8060035
:1011000005F0B2FB02B080BD80B584B08DF80F0051
:101110009DF80F0001281BD1FFE743F6E451C2F20E
:101120000001019100200290887041F20000C4F299
:10113000010010210BF0BEF840F60000C4F20100DF
:1011400040210BF0BFF80199029881F8310046E088
:1011500043F6E451C2F200010120887040F600001D
:10116000C4F2010040210BF0A5F840F2B470C2F2C5
:10117000000090F8300080B9FFE740F2B470C2F28E
:10118000000090F8310040B9FFE741F20000C4F2DE
:10119000010010210BF096F807E041F20000C4F2C4
:1011A000010010210BF086F8FFE740F2B470C2F2A4
:1011B000000090F82F00012808D1FFE743F6E45122
:1011C000C2F20001012081F8310007E043F6E4514A
:1011D000C2F20001002081F83100FFE7FFE704B010
:1011E00080BD000080B582B041F20000C4F2010071
:1011F00000904FF4806101910BF05CF805200AF03B
:1012000023FD009801990BF05DF814200AF01CFDF5
:1012100043F62460C2F20000006890F82000012824
:1012200007D1FFE74BF25250C0F6010000F0FAF888
:10123000FFE74BF22050C0F6010000F0F3F84BF24C
:101240002550C0F6010000F0EDF802B080BD0000AE
:10125000FFE7FEE782B001908DF803100198408906
:101260009DF80310C84000F0030002B07047000072
:1012700081B0009000988088000B01B0704700009A
:1012800081B0009000980078C0F3001001B0704762
:1012900080B582B08DF807000020ADF804009DF8FD
:1012A000070001460091012804D0FFE700980228BA
:1012B00006D00BE000200AF079FBADF8040005E051
:1012C00001200AF073FBADF80400FFE7BDF804004D
:1012D00002B080BD80B584B00AF00EFB0020029001
:1012E000382101910AF0B2FB02980AF095FB0299AD
:1012F00008460AF0CFFB02980AF03EFB0199012054
:1013000003900AF0A3FB03980AF086FB0299039866
:101310000AF0C0FB03980AF02FFB02980AF0F8FAD3
:1013200003980AF0F5FA04B080BD00000000000048
:1013300080B586B08DF81700ADF814109DF8170031
:1013400001460391012804D0FFE70398022834D016
:1013500048E0BDF8140020B9FFE70020ADF8120006
:1013600020E0BDF81400FFF72CF941EC100B9FEDC5
:101370001E1B53EC112B51EC100BFEF7F0FF41EC50
:10138000100B51EC100B9FED1A0B53EC102BFEF7CA
:101390003FFF41EC100B51EC100BFFF723F9ADF8B8
:1013A0001200FFE7BDF812200021029108460AF062
:1013B0004DFA02980AF016FB14E0BDF81420002044
:1013C000009040F214510BF091FA0099ADF8120020
:1013D000BDF81220012001900AF038FA01980AF0B5
:1013E00001FBFFE706B080BD666666666666444040
:1013F000000000000000284080B50020C4F2020078
:10140000042102220AF024FE50B1FFE70020C4F2BA
:101410000200042101220AF009FE0CF071FAFFE734
:1014200080BD000080B584B0039003980190FFE771
:10143000019800788DF80B000198013001909DF81B
:101440000B0008B9FFE727E09DF80B00FF2803D148
:10145000FFE709F02DFCEBE79DF80B0000060028E4
:101460000DD5FFE79DF80B0000F07F010198421CAD
:101470000192007840EA01200AF0E6FB0BE00199B6
:101480009DF80B20382001F09FFF01989DF80B106C
:1014900008440190FFE7CBE704B080BD704700002F
:1014A00080B582B00190019803F0E8FE0198042114
:1014B000FFF7D0FE002815DCFFE70198FFF7D8FE04
:1014C0000146009120B1FFE70098022804D007E010
:1014D000019803F01BFF04E0019803F07BFF00E09C
:1014E000FFE7FFE702B080BD82B08DF8060043F64B
:1014F000E450C2F20000807CADF804009DF80600C4
:10150000BDF8041040F25813C2F200034FF4CA723F
:1015100001FB02314978884204DBFFE700208DF8A7
:101520000700A7E0BDF8040040F25812C2F2000222
:101530004FF4CA7100FB01209DF8061000EB410139
:10154000002088809DF806008DF80300FFE79DF8D5
:101550000300BDF8041040F25813C2F200034FF428
:10156000CA7201FB023149780139884217DAFFE774
:10157000BDF8040040F25812C2F200024FF4CA71E2
:1015800000FB01209DF8031000EB4101C888888012
:10159000FFE79DF8030001308DF80300D7E7BDF8A1
:1015A000040040F25812C2F200024FF4CA7100FB6C
:1015B0000120437800EB430300205880BDF804006D
:1015C00000FB0123587801385870BDF8040000FB77
:1015D0000120407868B9FFE7BDF8040040F25812D6
:1015E000C2F200024FF4CA7100FB01210020887092
:1015F0003CE0BDF8040040F25812C2F200024FF481
:10160000CA7100FB012080789DF8061088420EDD2B
:10161000FFE7BDF8040040F25812C2F200024FF496
:10162000CA7100FB01218878013888701DE0BDF87F
:10163000040040F25812C2F200024FF4CA7100FBDB
:1016400001204178807888420EDBFFE7BDF8040076
:1016500040F25812C2F200024FF4CA7100FB01219D
:10166000487801388870FFE7FFE7FFE701208DF831
:101670000700FFE79DF8070002B0704780B582B011
:10168000ADF80600BDF80600C82806DBFFE7BDF888
:101690000600B0F5967F05DDFFE740F20910FFF781
:1016A000EDFF17E00020ADF804009DF8060000F003
:1016B0003F008DF80400BDF80600C0F382108DF8DD
:1016C00005009DF804209DF80530812002210CF0D2
:1016D000FFFAFFE702B080BD80B584B0844606986B
:1016E0008DF80FC08DF80E10ADF80C208DF80B3072
:1016F0008DF80A00BDF80C00ADF808009DF80B004D
:101700008008ADF806009DF80E009DF80F10BDF89A
:101710000C200244013ABDF806300B44013BD2B222
:10172000DBB20CF07DF95C2000210CF0D1FA9DF8C1
:101730000A00BDF80810BDF80620514389B20CF02C
:1017400055FB04B080BD000080B592B08DF8470015
:101750008DF846109DF847001F2805DCFFE79DF82F
:101760004600202801DBFFE723E031200021109113
:101770000CF0AEFA109B9DF847109DF84620684685
:101780000F9043630363C262826242620362C36179
:10179000826143610361C160816041600360202018
:1017A00010211A460CF094FA109930200CF090FA9F
:1017B000FFE712B080BD000080B582B08DF8070051
:1017C000A6208DF806009DF80700C00730B1FFE79E
:1017D0009DF8060001308DF80600FFE79DF8060031
:1017E00000210CF075FA02B080BD000080B582B017
:1017F0008DF807009DF8070028B9FFE7AE2000210B
:101800000CF066FA04E0AF2000210CF061FAFFE76B
:1018100002B080BDB0B58AB0ADF826008DF82510B5
:10182000ADF8222000258DF82150079542F22000C6
:10183000C0F220000690BDF8220007A9049113F021
:1018400097FC014604988DF821109DF8211017F09F
:101850002FFE04999DF8212006A80590801A0330D8
:10186000FEF786FCBDF826009DF8251040F2140412
:10187000C2F20004A28802EB4202A379EC46CCF843
:10188000005092B200F0E8FBDDF814C0BDF826006D
:101890009DF82510A28802EB42020244E3880B4423
:1018A000EE46CEF80C500325CEF80850CEF8044092
:1018B000CEF800C01BB212B201F028F90AB0B0BDD8
:1018C00080B586B0ADF816008DF81510ADF8122071
:1018D00000208DF811000390BDF8120003A90291B9
:1018E00013F046FC029B8DF811009DF816009DF840
:1018F00015109DF811201A4412F8013C4FF6AB2246
:10190000C0F6010202EB43126B461A600822102354
:1019100000F0FEFA9DF81100022819DBFFE7BDF880
:10192000160008389DF815109DF8112003AB1A44D5
:1019300012F8023C4FF6AB22C0F6010202EB431252
:101940006B461A60C0B20822102300F0E1FA0DE0E5
:10195000BDF8160008389DF815106B4600221A6075
:1019600080B20822102300F07DFCFFE79DF81100F3
:10197000032819DBFFE7BDF8160010389DF8151095
:101980009DF8112003AB1A4412F8033C4FF6AB222A
:10199000C0F6010202EB43126B461A60C0B2082285
:1019A000102300F0B5FA0DE0BDF8160010389DF8D0
:1019B00015106B4600221A6080B20822102300F036
:1019C00051FCFFE706B080BD80B584B00390029162
:1019D0008DF8072009F080F903999DF8072044F25B
:1019E0003900C0F2F40004F0CBFF02999220C0F25B
:1019F000F40004F091FF9DF807109320C0F2F4006A
:101A000004F08AFF002004B080BD000080B584B0DF
:101A100003908DF80B10019203989DF80B2001990B
:101A2000FEF7B8FB039901980144002001F8010C6E
:101A300004B080BD80B586B08DF817008DF8161003
:101A400004928DF80F309DF8170040F25812C2F240
:101A500000024FF4CA7110FB01209DF8161000EB34
:101A600041008088ADF80C009DF81700F0B9FFE741
:101A700004989DF80F109DF81620531CBDF80CE03B
:101A800045F62942C0F28F22AEFB02C24FF0640C31
:101A900002FB1CEEEC46CCF804E0CCF8002042F24D
:101AA0000912C0F6020218F063F911E004989DF8DB
:101AB0000F109DF81620531CBDF80C20EC46CCF8F6
:101AC000002042F21A12C0F6020218F051F9FFE7A4
:101AD00006B080BD80B588B040F20020C0F2300072
:101AE00001210AF0E3FC40F60000C4F20100059079
:101AF000042106910222049281230AF0FFFB049A3A
:101B0000059828214FF400430AF0F8FB049A06993F
:101B100040F60040C4F20100039040F603430AF08F
:101B2000EDFB049A059840F61401C4F2010140232C
:101B30000B60102100910AF0E1FB0099049A41F238
:101B40001400C4F2010040F6D853036041F20000D3
:101B5000C4F2010001900AF0D1FB00990398049AA5
:101B600040F6144CC4F2010C4FF48073CCF80030F2
:101B70000AF0C4FB0198049B002102910322079202
:101B80000AF0BCFB02990598079A30230AF0B6FBCD
:101B900002990598069B079A0AF0B0FB0398049AED
:101BA00040F61041C4F20101C0230B6014210AF079
:101BB000A5FB0598079A18214FF400730AF09EFBC5
:101BC00005980699079A4FF480630AF097FB08B0CE
:101BD00080BD0000B0B58AB08C4686460F980E993D
:101BE000ADF826E08DF825C08DF8242008938DF8F7
:101BF0001F108DF81E009DF824008DF81D009DF823
:101C00001D00202805DBFFE79DF81D007F2804DB71
:101C1000FFE73F208DF81D00FFE708988079400717
:101C200040B9FFE70898C088C1088DF81C10C0F3C0
:101C3000C70008E00898C188012000EBD1008DF8AA
:101C40001C00C0B2FFE79DF81D0020389DF81C1055
:101C50004843089989884843ADF81A0008980068F5
:101C6000BDF81A1008440590BDF826009DF825100F
:101C7000089B9A889B799DF81FC09DF81E40059D82
:101C8000EE46CEF80C50CEF80840CEF804C04FF027
:101C9000000CCEF800C000F041F80AB0B0BD000062
:101CA00080B582B08DF807000020ADF80400FFE792
:101CB000BDF80400172829DCFFE70020ADF802007A
:101CC000FFE7BDF80200FF2819DCFFE79DF80710C9
:101CD0004DF6F830C0F60100405CBDF8042040F23B
:101CE000F471C2F2000101EB0221BDF80220885418
:101CF000FFE7BDF802000130ADF80200E1E7FFE7C1
:101D0000BDF804000130ADF80400D1E70021FF2246
:101D10005F23084600F0ACFF02B080BDB0B58AB0CA
:101D200094468E460446119810980F990E9AADF875
:101D300026408DF825E0ADF822C08DF821308DF8D1
:101D400020208DF81F108DF81E000020ADF8140023
:101D50009DF821109DF820304DF6F632C0F60102B4
:101D6000D25CB1FBF2F101318DF813108DF8100047
:101D7000ADF81800FFE7BDF818009DF81310884271
:101D800080F2B280FFE79DF82130BDF818009DF881
:101D900020204DF6F631C0F601018A5C00FB1230BE
:101DA0008DF812009DF812009DF82020895C884271
:101DB0000ADBFFE79DF820104DF6F630C0F6010073
:101DC000405C8DF8110004E09DF812008DF81100C0
:101DD000FFE70020ADF81C00FFE7BDF81C00BDF8D0
:101DE000221088426DDAFFE71198BDF81410405CAC
:101DF0008DF817000020ADF81A00FFE7BDF81A00B3
:101E00009DF81110884250DAFFE79DF8200058BB7A
:101E1000FFE7BDF82600BDF81C10084402909DF8AD
:101E20002500BDF81A1008449DF8101008440390CE
:101E30009DF817000006002804D5FFE79DF81F0055
:101E4000019003E09DF81E000190FFE703990298BE
:101E5000019A80B2C9B2D2B200F0C6F89DF817005C
:101E600040008DF8170019E0BDF82600BDF81C10E1
:101E700008449DF82510BDF81A2011449DF8102043
:101E800011449DF81720920980B2C9B200F0ACF855
:101E90009DF8170080008DF81700FFE7FFE7BDF8F9
:101EA0001A000130ADF81A00A8E7BDF8140001309F
:101EB000ADF81400FFE7BDF81C000130ADF81C00C0
:101EC0008BE79DF820104DF6F630C0F60100415C1E
:101ED0009DF8100008448DF81000FFE7BDF81800C9
:101EE0000130ADF8180046E79DF82510BDF8260032
:101EF000BDF822200244013A9DF821300B44013BF9
:101F000092B2DBB2C0B200F0B3FE0AB0B0BD0000C6
:101F100080B584B0DDF818C08DF80F008DF80E1074
:101F2000ADF80C208DF80B300020ADF800009DF8C6
:101F30000E008008ADF804009DF80B008008ADF895
:101F40000200BDF80400ADF80800FFE7BDF8080086
:101F5000BDF80410BDF802201144884231DAFFE7D1
:101F60009DF80F00ADF80600FFE7BDF806009DF8EC
:101F70000F10BDF80C20114488421BDAFFE70698C9
:101F8000BDF80010405CBDF8082040F2F471C2F2C8
:101F9000000101EB0221BDF806208854BDF80000C5
:101FA0000130ADF80000FFE7BDF806000130ADF8E4
:101FB0000600DAE7FFE7BDF808000130ADF80800D9
:101FC000C4E79DF80F009DF80E10BDF80C200244E8
:101FD000013A9DF80B300B44013B92B2DBB200F0AA
:101FE00047FE04B080BD000082B0ADF806008DF859
:101FF00005108DF804209DF8050080088DF8030079
:102000009DF80510032020EA010149008DF8021017
:102010009DF8021000FA01FC9DF8031040F2F470E4
:10202000C2F2000000EB0122BDF80630D15C21EACB
:102030000C01D1549DF804109DF8022001FA02F31E
:102040009DF8031000EB0121BDF80620885C1843C1
:10205000885402B07047000080B586B08446089866
:10206000ADF816C08DF81510ADF812208DF81130AE
:102070008DF810009DF81100ADF80A009DF81500CC
:10208000ADF80600BDF8060000F00300ADF804004E
:10209000BDF8060080088DF80300FFE7BDF80A00D0
:1020A000002800F0CB80FFE7BDF80A00BDF804105F
:1020B000C1F10401884205DAFFE7BDF80A00ADF876
:1020C000080007E0BDF80400C0F10400ADF8080006
:1020D00080B2FFE700208DF802008DF80100BDF806
:1020E000080004282DD1FFE79DF810104DF6F830B8
:1020F000C0F60100405C8DF80200BDF81600ADF896
:102100000E00FFE7BDF80E00BDF81210BDF8162056
:102110001144884214DAFFE79DF802009DF803207D
:1021200040F2F471C2F2000101EB0221BDF80E2071
:102130008854FFE7BDF80E000130ADF80E00E1E76E
:1021400062E00020ADF80E00FFE7BDF80E00BDF81C
:102150000810884226DAFFE7BDF80E00BDF804102B
:102160000844C0F1030040008DF800009DF8100005
:102170009DF8001000FA01F19DF8020008438DF867
:1021800002009DF80010032000FA01F19DF8010003
:1021900008438DF80100FFE7BDF80E000130ADF8EF
:1021A0000E00D2E7BDF81600ADF80E00FFE7BDF84F
:1021B0000E00BDF81210BDF816201144884222DA34
:1021C000FFE79DF801C09DF8031040F2F470C2F2E1
:1021D000000000EB0122BDF80E30D15C21EA0C01B9
:1021E000D1549DF802309DF8031000EB0121BDF899
:1021F0000E20885C18438854FFE7BDF80E000130BC
:10220000ADF80E00D3E7FFE7BDF80810BDF80A00EF
:10221000401AADF80A00BDF80810BDF806000844E1
:10222000ADF80600BDF8060000F00300ADF80400AC
:10223000BDF8060080088DF803002FE79DF8151003
:10224000BDF81600BDF812200244013A9DF8113085
:102250000B44013B92B2DBB2C0B200F009FD06B004
:1022600080BD000080B584B084460698ADF80EC0ED
:102270008DF80D10ADF80A208DF809308DF80800A2
:102280009DF80D008008ADF802009DF80900800857
:10229000ADF80000BDF80200ADF80400FFE7BDF89E
:1022A0000400BDF80210BDF80020114488422ADA6B
:1022B000FFE7BDF80E00ADF80600FFE7BDF8060029
:1022C000BDF80E10BDF80A201144884214DAFFE769
:1022D0009DF80800BDF8042040F2F471C2F200013C
:1022E00001EB0221BDF806208854FFE7BDF8060087
:1022F0000130ADF80600E1E7FFE7BDF8040001306A
:10230000ADF80400CBE79DF80D10BDF80E00BDF848
:102310000A200244013A9DF809300B44013B92B275
:10232000DBB2C0B200F0A4FC04B080BDB0B58CB08C
:102330008C46864612981199109CADF82EE08DF8C7
:102340002DC08DED0A0A8DF827208DF826308DF8E6
:1023500025108DF8240000208DF823009DED0A0A39
:10236000BDEEC00A8DED070A9DED0A0A9DED071A24
:10237000B8EEC11A30EE410A9DF827104DF6B44070
:10238000C0F6010000EB810090ED001AB8EE411A92
:1023900020EE010ABDEEC00A8DED060A0698B0F1E6
:1023A000FF3F04DCFFE7069840420690FFE79DF8F8
:1023B000260001284BD1FFE7BDF82E009DF82D1017
:1023C000069A109B9DF825E09DF82440EC46CCF839
:1023D0000840CCF804E0CCF800300123059300F06D
:1023E000FDF8BDF82E209DF827000130109B99883C
:1023F00000FB11209DF82D109DF825209DF824E06C
:10240000EC46CCF804E0CCF8002080B22E22FFF796
:10241000E1FB059BBDF82E209DF827000130DDF87B
:1024200040C0BCF8041000FB11209DF82D10079A45
:102430009DF825409DF82450EE46CEF80850CEF881
:102440000440CEF800C080B200F0C8F84BE0BDF800
:102450002E009DF82D10069A109B9DF825E09DF802
:102460002440EC46CCF80840CCF804E0CCF800302E
:102470000023049300F0B2F88DF82300BDF82E205D
:102480009DF82300109B998800FB01209DF82D10DA
:102490009DF825209DF824E0EC46CCF804E0CCF82B
:1024A000002080B22E22FFF795FB049BBDF82E2062
:1024B0009DF823000130DDF840C0BCF8041000FB9B
:1024C00001209DF82D10079A9DF825409DF8245075
:1024D000EE46CEF80850CEF80440CEF800C080B2E8
:1024E00000F07CF8FFE70CB0B0BD000010B584B080
:1024F0008C46864607980699ADF80EE08DF80DC01B
:102500008DF80C20ADF80A30ADF808108DF80700F2
:102510009DF80C0001282FD1FFE7BDF80E00BDF893
:102520000A100844B0F5807F07DDFFE7BDF80E0014
:10253000C0F58070ADF80A00FFE79DF80D00BDF80A
:1025400008100844612807DBFFE79DF80D00C0F183
:102550006000ADF80800FFE7BDF80E009DF80D1013
:10256000BDF80A209DF808309DF807C0EE46CEF869
:1025700000C0FFF771FD2EE09DF80D00BDF80A10B8
:102580000844612807DBFFE79DF80D00C0F16000FB
:10259000ADF80A00FFE7BDF80E00BDF808100844CA
:1025A000B0F5807F07DDFFE7BDF80E00C0F5807055
:1025B000ADF80800FFE7BDF80E009DF80D10BDF85E
:1025C00008209DF80A309DF807C0EE46CEF800C0FE
:1025D000FFF742FDFFE704B010BD000010B58AB060
:1025E0008C4686460E980D990C9CADF826E08DF829
:1025F00025C008928DF81F308DF81E108DF81D0033
:1026000000208DF81C00089802900298B0F1FF3F5E
:1026100004DCFFE7029840420290FFE7FFE70298E0
:1026200046F26761C6F2666150FB01F39A1002EB55
:10263000D37202EB8202A0EB42009DF81C300DF138
:102640000F02D054029850FB01F1881000EBD170BA
:1026500002909DF81C0001308DF81C00FFE70298E5
:102660000028DCD1FFE70898B0F1FF3F0CDCFFE762
:102670009DF81C200DF10F012D2088549DF81C00A1
:1026800001308DF81C00FFE79DF81F0000285CD189
:10269000FFE700208DF81B00FFE79DF81B009DF869
:1026A0001C10884250DAFFE79DF81C109DF81B00B3
:1026B000C04301440DF10F00405C2D281AD1FFE703
:1026C000BDF826009DF825109DF81C309DF81B20B4
:1026D000D24313440DF10F02D25C0C9B9DF81EC037
:1026E0009DF81D40EE46CEF80440CEF800C0FFF73E
:1026F00071FA1BE0BDF826009DF825109DF81C30EE
:102700009DF81B20D24313440DF10F02D25C3032EE
:102710000C9B9DF81EC09DF81D40EE46CEF804406F
:10272000CEF800C0D2B2FFF755FAFFE70C988188C7
:10273000BDF826000844ADF82600FFE79DF81B0011
:1027400001308DF81B00A8E757E000208DF81B0032
:10275000FFE79DF81B009DF81C1088424CDAFFE74C
:102760009DF81B100DF10F00405C2D281AD1FFE7DA
:10277000BDF826000C9B9988401A9DF825109DF8FD
:102780001BC00DF10F0212F80C209DF81EC09DF821
:102790001D40EE46CEF80440CEF800C080B2FFF7F0
:1027A00019FA1BE0BDF826000C9B9988401A9DF889
:1027B00025109DF81BC00DF10F0212F80C203032CD
:1027C0009DF81EC09DF81D40EE46CEF80440CEF8A0
:1027D00000C080B2D2B2FFF7FDF9FFE70C98818804
:1027E000BDF82600401AADF82600FFE79DF81B0053
:1027F00001308DF81B00ACE7FFE79DF81C000AB024
:1028000010BD000080B58CB084460E98ADF82AC08B
:1028100009918DF82320ADF820308DF81F0009981C
:102820000690BDF82A00ADF8160032208DF815008C
:102830004FF48070ADF812006020ADF81000BDF9C3
:102840002000B0F1FF3F04DCFFE70020ADF80E00F0
:1028500004E0BDF82000ADF80E00FFE79DF823006E
:10286000BDF80E10401A9DF81F1012F005FC8DF8EF
:102870000D00BDF80E10069808440690FFE79DF87D
:102880000D00002857D0FFE706980078202819DBB4
:10289000FFE7069800787E2814DCFFE7BDF81600F5
:1028A0009DF81510069A1278EC460023CCF80430F7
:1028B0000323CCF8003040F21403C2F20003FFF708
:1028C00089F919E0069800780D2803D1FFE7012067
:1028D0000B9033E0BDF816009DF815106B460022F2
:1028E0005A6003221A6040F21403C2F2000320224D
:1028F000FFF770F9FFE7FFE740F21401C2F20001B1
:102900008A88BDF816001044ADF81600BDF8160010
:1029100089880844BDF81210884203DDFFE70220D1
:102920000B900BE00698013006909DF80D000138E1
:102930008DF80D00A3E700200B90FFE70B980CB07B
:1029400080BD000010B588B08C4686460B980A9969
:10295000ADF81EE08DF81DC0ADF81A208DF81930C5
:102960008DF818108DF81700BDF81E009DF81D1089
:10297000BDF81A309DF818209DF817E0EC46CCF809
:1029800004E0CCF8002001220392FFF7AFFD039A88
:10299000BDF81E009DF81D109DF819301944BDF8B2
:1029A0001A309DF818C09DF81740EE46CEF8044046
:1029B000CEF800C0C9B2FFF799FDBDF81E009DF822
:1029C0001D109DF819309DF818209DF817E0EC4671
:1029D000CCF804E0CCF8002000220492FFF786FD3A
:1029E000049ABDF81E00BDF81A1008449DF81D1089
:1029F0009DF819309DF818C063449DF81740EE46C5
:102A0000CEF80440CEF800C080B2FFF76FFD08B0EA
:102A100010BD000080B588B084460A98ADF81EC08D
:102A2000ADF81C10ADF81A208DF819308DF818008B
:102A3000BDF81A00BDF81E20801A00EB800040018E
:102A4000BDF81C10891A90FBF1F08DF817009DF865
:102A50001800C007D0B1FFE740F23C01C2F200010C
:102A6000642008706946002004900860212033210A
:102A70009F221323FFF7F0FA049869460860E720C5
:102A8000362115220C23FFF7E7FAFFE79DF819001E
:102A900040F23C01C2F200010978884218D0FFE7F9
:102AA0009DF81920694600238B600320486040F29E
:102AB0001400C2F200000860E7203621FFF78EFD07
:102AC0009DF8190040F23C01C2F200010870FFE7D6
:102AD0009DF8170040F23D01C2F2000109788842DA
:102AE00012D0FFE79DF817206946032008602120D7
:102AF00033211323FFF7B0FA9DF8170040F23D0190
:102B0000C2F200010870FFE708B080BD10B588B0C0
:102B10008C4686460D980C990B9C0A9CADF81EE0DD
:102B20008DF81DC0ADF81A20ADF818308DF81710CB
:102B30008DF816000A980490BDF81E00ADF80E003E
:102B40009DF81D008DF80D00BDF81A00ADF80A00C3
:102B5000BDF81800ADF80800BDF91A00002806D429
:102B6000FFE7BDF91A00B0F5807F05DDFFE74FF400
:102B70008070ADF80A00FFE7BDF91800002805D401
:102B8000FFE7BDF91800612804DBFFE76020ADF81E
:102B90000800FFE7FFE704980078002866D0FFE709
:102BA000049800780A281AD1FFE7BDF81E00ADF896
:102BB0000E000B98C1889DF80D0008448DF80D009B
:102BC0009DF80D000B99C9880844BDF8081088428B
:102BD00001DDFFE74AE0049801300490DBE7BDF82F
:102BE0000E009DF80D10049A12780B9B9DF817C0EB
:102BF0009DF81640EE46CEF80440CEF800C0FEF731
:102C0000E9FF0B988188BDF80E000844ADF80E006E
:102C1000BDF80E000B9989880844BDF80A10884257
:102C200020DDFFE7BDF81E00ADF80E000B98C1884F
:102C30009DF80D0008448DF80D009DF80D000B99CE
:102C4000C9880844BDF80810884201DDFFE70DE09F
:102C500004984078202804D1FFE7049801300490BC
:102C6000FFE7FFE704980130049094E708B010BD37
:102C700082B08DF807008DF80610ADF804208DF8AD
:102C800003309DF8070043F63861C2F2000109885D
:102C9000884208DAFFE79DF8070043F63861C2F280
:102CA00000010880FFE79DF8060043F63C61C2F290
:102CB00000010988884208DAFFE79DF8060043F61C
:102CC0003C61C2F200010880FFE7BDF8040043F652
:102CD0003661C2F200010988884208DDFFE7BDF8CD
:102CE000040043F63661C2F200010880FFE79DF858
:102CF000030043F63A61C2F200010988884208DD08
:102D0000FFE79DF8030043F63A61C2F20001088034
:102D1000FFE702B07047000086B00590049103926F
:102D20004FF2E070C1F6FF700290029800680190C7
:102D3000019804990880BDF80600039908804FF2B5
:102D4000E870C1F6FF70029000208DF80300FFE7E5
:102D50009DF80300022811DCFFE70298006805993E
:102D60009DF8032041F82200029804300290FFE70A
:102D70009DF8030001308DF80300E9E706B07047C5
:102D800080B584B0039043F62460C2F2000000686E
:102D900090F90400142808DBFFE743F62460C2F230
:102DA00000000068807C08B1FFE745E00720694625
:102DB000012200F0DDF89DF80000039908700398E7
:102DC00000780006002837D5FFE7039800788006D2
:102DD000002831D4FFE7072069460A2200F0C8F82E
:102DE0009DF80000039908709DF801109DF80200FD
:102DF00040EA0120039948809DF803109DF80400E3
:102E000040EA0120039988809DF805109DF806008E
:102E100040EA01200399C8809DF807109DF808003A
:102E200040EA0120039908819DF80900039948812F
:102E30000398FEF735FBFFE704B080BD80B582B094
:102E400000200DF10301052200F092F89DF8030027
:102E5000410943F62460C2F200000268D1729DF875
:102E600003100268C1F3C00191729DF804206FF055
:102E7000070101EB5201026811710068807C68B99A
:102E8000FFE79DF8050043F62461C2F200010A68DD
:102E900050719DF806000968C87108E09DF80500AA
:102EA00043F62461C2F2000109688871FFE79DF8CA
:102EB000070000F07F0043F62461C2F200010968B8
:102EC00008729DF807000006002809D5FFE743F6C1
:102ED0002460C2F200000168087A40420872FFE7ED
:102EE00002B080BD80B584B00390002002903820ED
:102EF00000F032FA9DF80E0000F090FA9DF80D00F7
:102F000000F08CFA9DF80C0000F088FA392000F0EF
:102F100005FA9DF80D00400600280DD5FFE70020BA
:102F200000F07EF900020290012000F079F90146DC
:102F300002980843029016E00020019000F070F91A
:102F4000014601980904029100F06AF901460298CD
:102F500040EA01200290012000F062F90146029847
:102F600008430290FFE700F00FFA029804B080BD1A
:102F700080B584B08DF80F0002918DF807200020F5
:102F80000090ADF80400382000F0E6F99DF80F003D
:102F900000F044FA392000F0C1F90098ADF80400BF
:102FA000FFE7BDF804009DF80710013988420EDAEA
:102FB000FFE7002000F034F90299BDF8042088549E
:102FC000FFE7BDF804000130ADF80400E9E7012097
:102FD00000F026F90299BDF80420885400F0D4F9D5
:102FE00004B080BD80B582B08DF807000020ADF838
:102FF00004008DF8030043F6E450C2F20000807C28
:10300000ADF8000002F0D4F8BDF8000040F258120C
:10301000C2F200024FF4CA7100FB01204078002880
:1030200000F0C680FFE79DF90700012857DBFFE7A6
:103030000020ADF80400FFE7BDF90400BDF8001062
:1030400040F25813C2F200034FF4CA7201FB02317E
:103050004978884231DAFFE7BDF8002040F2581184
:10306000C2F200014FF4CA7002FB0010BDF9041057
:1030700000EB4100808843F6E451C2F2000101EB0D
:103080004201898A884211DDFFE79DF80400BDF8FE
:10309000001040F25813C2F200034FF4CA7201FB51
:1030A0000231887001208DF8030006E0FFE7BDF8CB
:1030B00004000130ADF80400BEE79DF8030068B9D4
:1030C000FFE7BDF8000040F25812C2F200024FF4D0
:1030D000CA7100FB012100208870FFE757E0BDF8AE
:1030E000000040F25812C2F200024FF4CA7100FB15
:1030F000012040780138ADF80400FFE7BDF9040075
:10310000002831D4FFE7BDF8002040F25811C2F288
:1031100000014FF4CA7002FB0010BDF9041000EB6F
:103120004100808843F6E451C2F2000101EB420104
:10313000898A884211DAFFE79DF80400BDF8001083
:1031400040F25813C2F200034FF4CA7201FB02317D
:10315000887001208DF8030006E0FFE7BDF8040049
:103160000138ADF80400C9E79DF8030070B9FFE726
:10317000BDF8000040F25812C2F200024FF4CA71CA
:1031800000FB0121487801388870FFE7FFE7BDF8B0
:10319000000040F25812C2F200024FF4CA7100FB64
:1031A0000120817800EB4100808800F003F8FFE700
:1031B00002B080BD80B582B0ADF80600BDF8060053
:1031C00043F6E451C2F200018A7C0121002A08BFC3
:1031D000042104F051F802B080BD0000FFE7FEE7D3
:1031E00081B08DF8030003208DF80200FFE79DF801
:1031F0000300411E8DF8031068B1FFE703208DF82E
:103200000200FFE79DF80200411E8DF8021008B190
:10321000FFE7F7E7EBE701B07047000070470000F9
:1032200080B584B08DF80F0000208DF80E0040F6B8
:103230001042C4F20102802111608DF80D00FFE7F9
:103240009DF80D0007283CDCFFE79DF80E004000CC
:103250008DF80E000220FFF7C3FF40F61041C4F2C4
:103260000101402008600120FFF7BAFFFFE740F6A8
:103270000040C4F20100402109F002F908B9FFE75B
:10328000F5E740F60040C4F20100802109F0F8F8AB
:1032900038B1FFE79DF80E0040F001008DF80E00F8
:1032A000FFE70120FFF79CFF40F61441C4F2010143
:1032B00040200860FFE79DF80D0001308DF80D00FB
:1032C000BEE79DF80F00C00738B1FFE740F6104198
:1032D000C4F201018020086006E040F61441C4F207
:1032E000010180200860FFE702200190FFF778FFCE
:1032F000019840F61042C4F201024021029111608F
:10330000FFF76EFF029840F61441C4F20101086015
:10331000802008609DF80E0004B080BD80B584B0A8
:103320008DF80F0004200290FFF75AFF029840F634
:103330001042C4F20102019280211160FFF750FF98
:10334000019A029840211160FFF74AFF9DF80F0093
:1033500000F002F804B080BD80B582B08DF807009F
:1033600040F61441C4F2010100918020086004205D
:10337000FFF736FF0099402008609DF8070000F035
:103380004DF802B080BD000080B584B040F6144115
:10339000C4F2010180200290086004200390FFF72E
:1033A0001FFF039840F61042C4F20102019240212F
:1033B0001160FFF715FF019A029903981160FFF75A
:1033C0000FFF04B080BD000080B584B08DF80F0001
:1033D0000291ADF806209DF80F0000F0FE00FFF707
:1033E000BBFF0020ADF80400FFE7BDF80400BDF806
:1033F000061088420DDAFFE70298BDF80410405C21
:1034000000F00CF8FFE7BDF804000130ADF804004F
:10341000EBE7FFF7B9FF04B080BD000080B586B0D0
:103420008DF8170080208DF81600FFE79DF8160034
:1034300090B3FFE70120FFF7D3FE9DF816009DF83B
:103440001710084207D0FFE740F61041C4F201010F
:103450008020086006E040F61441C4F2010180209B
:103460000860FFE70120FFF7BBFE40F61041C4F201
:1034700001014020049008600220FFF7B1FE04988B
:1034800040F61441C4F201010860FFE79DF8160000
:1034900040088DF81600C9E701200090FFF7A0FE54
:1034A000009840F61042C4F201020192802103917B
:1034B0001160FFF795FE039940F60040C4F2010049
:1034C00008F0DEFF01998DF8150040200290086099
:1034D0000220FFF785FE029A039840F61441C4F2D9
:1034E00001010A6008609DF81500B0FA80F04009FB
:1034F00006B080BD81B0ADF80000BDF8000009281D
:1035000004DCFFE701208DF8030021E0BDF8000096
:10351000632804DCFFE702208DF8030018E0BDF803
:103520000000B0F57A7F04DAFFE703208DF803008E
:103530000EE0BDF8000042F20F71884204DCFFE7A4
:1035400004208DF8030003E005208DF80300FFE759
:103550009DF8030001B0704780B582B08DF8070078
:103560008DF806109DF8071040F2EE70C2F20000D0
:10357000405C0146009140B1FFE7009801282DD042
:10358000FFE70098022865D073E09DF8071040F22D
:10359000E870C2F20000405C022811DBFFE79DF8F2
:1035A000072040F2E871C2F20001002088549DF823
:1035B000072043F68901C2F2000101208854FFE789
:1035C0009DF8060048B9FFE79DF8072040F2EE712C
:1035D000C2F2000101208854FFE74BE012F064F9C9
:1035E0009DF8060050B9FFE79DF8072040F2E8710A
:1035F000C2F20001885C0130885408E09DF8072081
:1036000040F2EE71C2F2000100208854FFE79DF8FD
:10361000071040F2E870C2F20000405C642818DB3A
:10362000FFE79DF8072040F2EE71C2F20001022090
:1036300088549DF8073040F2E872C2F2000200217F
:10364000D1549DF8072043F68901C2F20001885445
:10365000FFE70FE09DF80600012809D1FFE79DF87C
:10366000072040F2EE71C2F2000100208854FFE70B
:1036700000E0FFE702B080BD80B58EB000F094F8A6
:1036800041F20000C4F2010003908021049108F08F
:1036900011FE64200B9008F0D7FA0398049908F003
:1036A00011FE0B9808F0D0FA3020069000210D9101
:1036B0000AF00EFB0D9994200AF00AFB0D993120B7
:1036C0000AF006FBD72001210C919F2208920AF0F4
:1036D000FFFA0C9B0D9A6846032107910160322086
:1036E00005900AF0F5FA059807996A461060F220ED
:1036F0001E2228230AF0ECFA68460D23436003607B
:10370000F020099004211A460AF0E2FA06980D9971
:103710000AF0DEFA0D9908460AF068F90C990D9A3C
:10372000BC200AF0D5FA0799089B0D9AEC460A20AE
:10373000CCF80000CA200AF0CBFA09980C991122A3
:103740000AF0C6FA0C9920200B220AF0C1FA43F6BF
:103750002850C2F200000A90C088FDF78FFF0A9936
:1037600048788978FDF7F0FF0A98C07800F00100EA
:10377000FEF722F80D98FEF793FA0D99684601605E
:103780004FF4807260230846FDF7A6FF0B9808F0FF
:10379000A7FA0C98FEF72AF80D9808F0D3F8052040
:1037A00008F052FA0EB080BD80B58CB040F20360D4
:1037B00012F03EF84FF4C06012F03AF840F20E708A
:1037C00012F036F80A2008F08BFA40F61040C4F2E6
:1037D00001004FF4A043036040F60040C4F2010032
:1037E000019010210322029208F088FD0198029AAC
:1037F00018214FF4204308F081FD05A8039015F02F
:1038000075FD43F60000C4F20000049015F0D4FCEE
:10381000029B039904984FF4404206924FF482723F
:103820000592002207920A934FF4007308930B92BB
:10383000099215F011FD049815F04EFD04984FF40F
:10384000804115F071FC049815F09AFC0CB080BD15
:1038500082B08DF8070043F63861C2F20001FF2004
:10386000088043F63C61C2F200015F20088043F605
:103870003661C2F200010020088043F63A61C2F2CC
:10388000000108809DF80700C007C0B1FFE743F6BC
:103890002851C2F20001009105208880888800EB41
:1038A0008000400088601420087040F20912CA802D
:1038B00010224A7088700020C8700873FFE702B0B9
:1038C00070470000FFE7FEE780B50020012103F00C
:1038D000C7FDFFE743F68900C2F20000007818B187
:1038E000FFE708F0A9FC02E007F09EF9F2E780BDCF
:1038F00070B5A0B000208DF87C001E904FF4003110
:103900001D918DF870001B9040F20311C0F2093137
:103910001A918DF867008DF866008DF865009DF9A5
:1039200067009DF965109DF96620012303F0D2FD23
:10393000FFE743F68900C2F200004078F0B1FFE7EC
:1039400043F68901C2F20001002048709DF967002A
:1039500008B9FFE7EDE79DF8670001388DF86700CB
:1039600000238DF866308DF865309DF967009DF96C
:1039700065109DF9662003F0ADFDFFE743F6890071
:10398000C2F200008078F8B1FFE743F68901C2F285
:103990000001002088709DF96700082801D1FFE729
:1039A000C7E79DF8670001308DF8670000238DF8A8
:1039B00066308DF865309DF967009DF965109DF9B9
:1039C000662003F087FDFFE743F68900C2F200009E
:1039D000007928B3FFE743F68901C2F20001002015
:1039E00008719DF967101DA8405601280EDBFFE7FE
:1039F0009DF967101DA84056411E9DF966200020C4
:103A0000012308F08FFF8DF86600FFE79DF967003E
:103A10009DF965109DF96620002303F05BFDFFE72B
:103A200043F69000C2F2000090F90000002800F078
:103A30004A82FFE79DF9670001461891082800F2C5
:103A400031821899DFE811F009009500D300650173
:103A5000020203020402050206029DF96500014606
:103A6000179140B1FFE7179801282DD0FFE717986D
:103A7000022853D07CE043F63830C2F200001690A2
:103A800090ED000A43F69000C2F2000090F90000A9
:103A900001EE100AB8EEC11A30EE010ABDEEC00AFE
:103AA00010EE102A6FF02F00182108F01FFF0146BA
:103AB000169800EE101AB8EEC00A80ED000A90EDDC
:103AC000000A13F0C1FC53E043F63830C2F20000A4
:103AD000159090ED030A43F69000C2F2000090F9B1
:103AE000000001EE100AB8EEC11A30EE010ABDEE78
:103AF000C00A10EE102A6FF02F00002108F0F6FE29
:103B00000146159800EE101AB8EEC00A80ED030ABF
:103B100090ED030A4C2013F0A3F829E043F6383067
:103B2000C2F20000149090ED040A43F69000C2F235
:103B3000000090F9000001EE100AB8EEC11A30EE54
:103B4000010ABDEEC00A10EE102A6FF02F0000210E
:103B500008F0CCFE0146149800EE101AB8EEC00A28
:103B600080ED040A90ED040A522013F079F8FFE783
:103B700098E143F63830C2F2000013904069FCF738
:103B800050FD41EC100B8DED100B43F69000C2F28E
:103B9000000090F90000FCF714FD41EC100B9FEDC4
:103BA000E41B53EC112B51EC100BFCF7D8FB9DEDF3
:103BB000100B41EC110B51EC110B53EC102BFCF7DB
:103BC00027FB41EC100B51EC100BFCF73DFD01EE17
:103BD000100AB0EE0C0ADFEDD80A08F05DFE13986B
:103BE00080ED050A90ED050A13F0A6F85AE19DF95B
:103BF000660001460F9120B1FFE70F98012831D0F0
:103C000076E09DF9650000EB400143F65030C2F2CA
:103C100000000E9000EB810090ED010A43F6900049
:103C2000C2F2000090F9000001EE100AB8EEC11ACD
:103C300030EE010ABDEEC00A10EE102A6FF00B0044
:103C40000C2108F053FE01460E9800EE101AB8EE53
:103C5000C00A9DF9651001EB410100EB810080ED88
:103C6000010A45E09DF9650000EB400143F6503044
:103C7000C2F200000D9000EB81008068FCF7D1FCDF
:103C800041EC100B8DED0A0B43F69000C2F20000E0
:103C900090F90000FCF795FC41EC100B9FEDCE1B5A
:103CA00053EC112B51EC100BFCF759FB9DED0A0B5B
:103CB00053EC102B41EC100B51EC100BFCF7A8FA55
:103CC00041EC100B51EC100BFCF7BEFC01EE100A9E
:103CD0009FEDC30AF2EE040A08F0DEFD0D989DF98F
:103CE000651001EB410100EB810080ED020AFFE766
:103CF0009DF9650000EB400143F65030C2F2000030
:103D000000EB810250F821005168926813F020F90D
:103D1000C8E09DF965000146099140B1FFE70998A7
:103D2000012829D0FFE7099802284AD06EE043F61F
:103D30000C50C2F20000089090ED010A43F690008A
:103D4000C2F2000090F9000001EE100AB8EEC11AAC
:103D500030EE010ABDEEC00A10EE102A6FF00B0023
:103D60000C2108F0C3FD0146089800EE101AB8EEC9
:103D7000C00A80ED010A49E043F60C50C2F200008F
:103D8000079090ED040A43F69000C2F2000090F90B
:103D9000000001EE100AB8EEC11A30EE010ABDEEC5
:103DA000C00A10EE102A6FF00B000C2108F09EFDE7
:103DB0000146079800EE101AB8EEC00A80ED040A1A
:103DC00024E043F60C50C2F20000069090ED060A83
:103DD00043F69000C2F2000090F9000001EE100AD4
:103DE000B8EEC11A30EE010ABDEEC00A10EE102A7C
:103DF0006FF00B000C2108F079FD0146069800EEEB
:103E0000101AB8EEC00A80ED060AFFE79DF865605B
:103E100043F60C5EC2F2000EDEF80000DEF804107D
:103E2000DEF80820DEF80C30DEF810C0DEF81440B2
:103E3000DEF81850EE46CEF80C60CEF80850CEF8FA
:103E40000440CEF800C013F073FC2BE02AE029E018
:103E500028E027E043F6D840C2F20000059090ED3C
:103E6000010A43F69000C2F2000090F9000001EE52
:103E7000100AB8EEC11A30EE010ABDEEC00A10EE0B
:103E8000102A0020182108F031FD0146059800EEA7
:103E9000101AB8EEC00A80ED010A90ED010A14F084
:103EA000BBF8FFE79DF967009DF965109DF9662055
:103EB0000023049303F00EFB049843F69001C2F232
:103EC00000010870FFE743F68900C2F20000C078E5
:103ED000002870D0FFE743F68901C2F200010020FC
:103EE000C8709DF9670004281CD1FFE740F2B47048
:103EF000C2F2000090F83010B1FA81F1490980F85F
:103F0000301090F83000002818BF012001F0B4FFF5
:103F100040F60000C4F20100802108F0B1FAFDF77C
:103F2000F3F83EE09DF96700052823D106E000BFC5
:103F3000000000000000E03F0000C84240F2B47002
:103F4000C2F2000090F83110B1FA81F1490980F80D
:103F5000311090F83100002818BF012002F072F9EA
:103F600040F60000C4F20100802108F089FAFDF754
:103F7000CBF815E09DF967101AA8405601280EDB12
:103F8000FFE79DF967101AA84056411E9DF965206C
:103F90000020012308F0C6FC8DF86500FFE7FFE76D
:103FA000FFE79DF967009DF965109DF966200023E4
:103FB00003F090FAFFE743F68900C2F200000078B0
:103FC00018B1FFE708F038F902E006F02DFEB0E482
:103FD00020B070BD00BF00BF9A9999999999B93FD7
:103FE000CDCCCC3D80B586B043F6E450C2F20000A3
:103FF00010F8121F8DF817109DF8171000EB4100F4
:104000004088ADF814000020ADF8120003909DF830
:10401000170040F25812C2F200024FF4CA7110FBAE
:104020000120407898B1FFE79DF8170040F2581240
:10403000C2F200024FF4CA7110FB012148788A785D
:10404000411E002008F052FCADF81200FFE79DF879
:104050001700BDF9121003F09BFDFFE743F689003E
:10406000C2F200004078B0B3FFE743F68901C2F224
:104070000001002048709DF8170040F25812C2F26B
:1040800000024FF4CA7110FB01204078E0B1FFE755
:10409000BDF91200012817DBFFE7BDF81200013857
:1040A000ADF812009DF8170040F25812C2F200025B
:1040B0004FF4CA7110FB0120BDF9121000EB410052
:1040C0008088FFF777F8FFE79DF81700BDF9121019
:1040D00003F05EFDFFE743F68900C2F2000080783E
:1040E000002842D0FFE743F68901C2F20001002018
:1040F00088709DF8170040F25812C2F200024FF487
:10410000CA7110FB0120407840B3FFE7BDF91200EF
:104110009DF8171040F25813C2F200034FF4CA7210
:1041200011FB023149780139884217DAFFE7BDF8FF
:1041300012000130ADF812009DF8170040F258123D
:10414000C2F200024FF4CA7110FB0120BDF9121037
:1041500000EB41008088FFF72DF8FFE79DF817007E
:10416000BDF9121003F014FDFFE743F68900C2F217
:104170000000C07800285FD0FFE743F68900C2F254
:104180000000C07802284AD1FFE79DF8170040F2EE
:104190005812C2F200024FF4CA7110FB012040789D
:1041A000E8B3FFE79DF81200FDF79EF9014603987A
:1041B000084403909DF8170040F25812C2F2000222
:1041C0004FF4CA7110FB0120407820B9FFE70020AE
:1041D000ADF8120022E09DF8170040F25812C2F22A
:1041E000000201924FF4CA71029110FB0120407845
:1041F000411EBDF91220002008F078FB019A0299B7
:10420000ADF812009DF8170010FB0120BDF9121047
:1042100000EB41008088FEF7CDFFFFE7FFE743F6A4
:104220008901C2F200010020C8709DF81700BDF995
:10423000121003F0ADFCFFE743F68900C2F2000064
:10424000007878B1FFE7039828B1FFE79DF81700E1
:1042500012F0AEFBFFE7BDF81400FEF7ABFF07F06E
:10426000EBFF02E006F0E0FCF8E606B080BD0000DF
:1042700080B592B000208DF843000DF13E018A1CFC
:1042800040F2B470C2F2000008901030FEF744FD16
:10429000E2200DF12B0109911322FEF769FE089926
:1042A000DDF82B0000BAC86141F69000C0F60200AC
:1042B00015F04EFD41F60240C0F6020015F048FD33
:1042C000089801694269836941F66F50C0F602009F
:1042D00015F03EFDBDF83E10BDF8402041F61250ED
:1042E000C0F6020015F034FD41F61A40C0F6020097
:1042F00015F02EFD089841688268C36841F62A408F
:10430000C0F6020015F024FD41F6E530C0F60200CB
:1043100015F01EFD9DF82B109DF82C20BDF82D00EA
:1043200043BA41F65810C0F6020015F011FD9DF891
:104330002F109DF830009DF831C001F00F010209E7
:1043400000F00F034FEA1C100CF00F0EEC46CCF8F7
:1043500004E0CCF8000041F6BE40C0F6020015F0C3
:10436000F7FC9DF832109DF833009DF834C001F041
:104370000F01020900F00F034FEA1C100CF00F0EA2
:10438000EC46CCF804E0CCF8000041F6DA40C0F688
:10439000020015F0DDFC9DF835109DF836009DF803
:1043A00037C001F00F01020900F00F034FEA1C10A3
:1043B0000CF00F0EEC46CCF804E0CCF8000041F60F
:1043C000F640C0F6020015F0C3FC9DF839209DF8B8
:1043D0003A00110902F00F02030941F68E40C0F6BF
:1043E000020015F0B5FC9DF83C209DF83D00110938
:1043F00002F00F02030941F6A640C0F6020015F0D4
:10440000A7FC0999E6200F22FEF7B2FD9DF82B10BC
:104410009DF82C309DF82D001A0903F00F03EC468F
:10442000CCF8000041F67110C0F6020015F090FCC7
:104430009DF82E109DF82F309DF830001A0903F0DA
:104440000F03EC46CCF8000041F6F710C0F602006E
:1044500015F07EFC9DF831109DF832309DF8330048
:104460001A0903F00F03EC46CCF8000041F67D205A
:10447000C0F6020015F06CFC9DF834109DF8353044
:104480009DF836001A0903F00F03EC46CCF8000043
:1044900041F6B410C0F6020015F05AFC9DF8371032
:1044A0009DF838309DF839001A0903F00F03EC46E7
:1044B000CCF8000041F63A20C0F6020015F048FCA6
:1044C00041F68150C0F6020015F042FC9DF9430010
:1044D000012103F073FCFFE743F68900C2F20000FC
:1044E0004078B0B1FFE743F68901C2F20001002035
:1044F00048709DF9430008B9FFE7EDE79DF84300D8
:1045000001388DF843009DF94300002103F056FC6B
:10451000FFE743F68900C2F200008078B8B1FFE7F8
:1045200043F68901C2F20001002088709DF9430022
:10453000042801D1FFE7CFE79DF8430001308DF853
:1045400043009DF94300002103F038FCFFE743F6E8
:104550008900C2F20000C078002800F09A80FFE7CE
:104560009DF9430001460791042800F281800799D4
:10457000DFE801F0030F1B27280040F2B471C2F2FC
:10458000000191F82F00B0FA80F0400981F82F0067
:1045900072E043F6E451C2F2000191F82000B0FA53
:1045A00080F0400981F8200066E040F2B471C2F268
:1045B000000191F83200B0FA80F0400981F8320031
:1045C0005AE059E043F68901C2F200010020C870A8
:1045D0006946C8600320886040F22C00C2F20000E7
:1045E000486041F6E150C0F602000860082018213A
:1045F000F8226023FEF78AFAFFE743F68900C2F249
:104600000000C078022822D1FFE740F60040C4F243
:1046100001004FF4807107F055FE4FF47A70069058
:1046200007F012FB069807F00FFB069807F00CFB4B
:10463000069807F009FB069807F006FB72B6012002
:104640001190119880F3138800F04AFDFFE743F6BC
:104650008900C2F20000007818B1FFE707F0ECFD16
:1046600000E0CAE79DF94300012103F0A7FB03E046
:1046700000208DF84300FFE79DF9430000210591DC
:1046800003F09CFB059843F68901C2F20001C87053
:10469000FFE743F69000C2F2000090F9000018B165
:1046A000FFE707F0C9FDFFE743F68900C2F200000B
:1046B000007818B1FFE707F0BFFD02E006F0B4FA9A
:1046C0000AE712B080BD000080B588B043F67500DF
:1046D000C2F200000121017000208DF81F009DF939
:1046E0001F0003F065FD09F0BDF9FFE743F68900FF
:1046F000C2F200004078C0B1FFE743F68901C2F280
:104700000001002048709DF91F0008B9FFE7EDE7A0
:104710009DF81F0001388DF81F009DF91F00002132
:1047200003F046FD09F09EF9FFE743F68900C2F267
:1047300000008078C8B1FFE743F68901C2F20001AA
:10474000002088709DF91F00062801D1FFE7CDE702
:104750009DF81F0001308DF81F009DF91F000021FA
:1047600003F026FD09F07EF9FFE743F69000C2F260
:10477000000090F90000002800F0A580FFE79DF9F7
:104780001F0001460691062800F28A800699DFE89C
:1047900001F0041E3A5354556E0043F62850C2F2FD
:1047A0000000059090F9000043F69001C2F200016C
:1047B00091F9001042180020642108F097F8014692
:1047C0000598017001780120FCF7B2FD6CE043F61A
:1047D0002850C2F200000490B0F9040043F69001A2
:1047E000C2F2000191F9001001EB81014218002092
:1047F0003C2108F07BF804998880888800EB8000D1
:104800004000886050E043F62850C2F20000039058
:10481000C08843F69001C2F2000191F900104218DD
:10482000D2204FF4917108F061F801460398C180DD
:10483000C088FCF723FF37E036E035E043F6285028
:10484000C2F200000290817890F9010043F69002D4
:10485000C2F2000292F900200244002008F046F85B
:104860000299487048788978FCF76EFF1CE043F69F
:104870002851C2F200010191487891F9021043F6E3
:104880009002C2F2000292F900200A441F2108F0AF
:104890002DF80199887048788978FCF755FF03E076
:1048A00000208DF81F00FFE79DF91F0000210091F7
:1048B00003F07EFC09F0D6F8009843F69001C2F2AE
:1048C00000010870FFE743F68900C2F20000C078DB
:1048D000B0B3FFE79DF91F00032815D1FFE743F6AA
:1048E0002850C2F20000C27801219143C170C07803
:1048F00000F00100FCF760FF9DF91F00002103F0AC
:1049000057FC09F0AFF8FFE79DF91F00042810D10C
:10491000FFE743F62851C2F200010A7B01209043D1
:1049200008739DF91F00002103F042FC09F09AF87A
:10493000FFE743F68901C2F200010020C870FFE7DB
:1049400043F68900C2F20000007848B1FFE707F0A3
:1049500073FC43F67501C2F200010020087002E00A
:1049600006F062F9C2E608B080BD000080B582B0F2
:1049700000208DF807009DF90700012105F0C2FB1A
:10498000FFE743F68900C2F200004078B0B1FFE7CC
:1049900043F68901C2F20001002048709DF907002A
:1049A00008B9FFE7EDE79DF8070001388DF807002B
:1049B0009DF90700002105F0A5FBFFE743F68900FC
:1049C000C2F200008078B8B1FFE743F68901C2F275
:1049D0000001002088709DF90700052801D1FFE73C
:1049E000CFE79DF8070001308DF807009DF907001B
:1049F000002105F087FBFFE743F68900C2F20000C3
:104A0000C07800283FD0FFE707F016FC9DF90700AB
:104A10000146009105282CD80099DFE801F0030930
:104A200012181E27FFF750FE022011F0F5FF24E0B8
:104A3000FEF75EFF032011F0EFFF002011F0ECFF06
:104A40001BE000F033F8012011F0E6FF15E000F064
:104A50003BFA012011F0E0FF0FE0FFF709FC002016
:104A600011F0DAFF012011F0D7FF06E0FEF72CFF6E
:104A700003E000208DF80700FFE79DF90700012102
:104A800005F040FBFFE743F68900C2F20000007822
:104A900030B1FFE707F0D0FB012004F0D7FA02E0C5
:104AA00006F0C2F86DE702B080BD000080B58EB0A0
:104AB00000208DF8370043F6E450C2F2000090F871
:104AC0002000002818BF01208DF835009DF937001F
:104AD000012105F053FCFFE743F68900C2F2000014
:104AE0004078B0B1FFE743F68901C2F2000100202F
:104AF00048709DF9370008B9FFE7EDE79DF83700EA
:104B000001388DF837009DF93700002105F036FC9B
:104B1000FFE743F68900C2F200008078B8B1FFE7F2
:104B200043F68901C2F20001002088709DF9370028
:104B30000B2801D1FFE7CFE79DF8370001308DF852
:104B400037009DF93700002105F018FCFFE743F618
:104B50008900C2F20000C078002800F09D80FFE7C5
:104B60009DF9370001460C910B2800F284800C99C6
:104B7000DFE801F006074344455667727D7E7F807B
:104B80007DE09DF83500C007B0B3FFE743F6E45081
:104B9000C2F200000B9090F828100120884301F029
:104BA00019FB0B9890F82800C00748B1FFE741F2C5
:104BB0000000C4F201004FF4006107F083FB1AE02B
:104BC00043F6E450C2F2000090F8270090B9FFE7E6
:104BD00043F6E450C2F2000090F82800C00748B93C
:104BE000FFE741F20000C4F201004FF4006107F05A
:104BF00061FBFFE7FFE7FFE741E040E03FE09DF8B2
:104C00003500C00758B1FFE743F6E450C2F2000098
:104C100090F82C100120884301F0A6FAFFE72EE05F
:104C20009DF83500C00758B1FFE743F6E450C2F2E3
:104C3000000090F829100120884301F071F9FFE786
:104C40001DE043F6E450C2F2000090F82A10012063
:104C5000884301F0ABFA12E043F6E450C2F20000E0
:104C600090F82B100120884301F078F907E006E066
:104C700005E004E003E000208DF83700FFE79DF930
:104C8000370000210A9105F079FB0A9843F6890163
:104C9000C2F20001C870FFE743F69000C2F20000C4
:104CA00090F90000002800F0FF80FFE79DF9370031
:104CB000014609910B2800F2E6800999DFE801F02E
:104CC000064E4F6B868788898AA9C7E243F6E4506F
:104CD000C2F20000089090F8270043F69001C2F25B
:104CE000000191F9001042180020012107F0FEFD9B
:104CF0000146089880F8271090F82700012809D16C
:104D0000FFE741F20000C4F201004FF4006107F038
:104D1000D9FA1AE043F6E450C2F2000090F82700F6
:104D200090B9FFE743F6E450C2F2000090F8280083
:104D3000C00748B9FFE741F20000C4F201004FF498
:104D4000006107F0B7FAFFE7FFE743F6E450C2F26D
:104D5000000090F8270001F0CBF898E097E043F6C8
:104D6000E450C2F20000079090F8330043F690013F
:104D7000C2F2000191F9001042180020032107F04F
:104D8000B5FD079981F8330091F8330081F83400BC
:104D900001F0A0FB7BE043F6E450C2F20000069075
:104DA00090F8320043F69001C2F2000191F9001030
:104DB00042180120022107F099FD0146069880F86B
:104DC000321090F8320001F0DDF860E05FE05EE064
:104DD0005DE05CE043F6E450C2F200000590C17C67
:104DE0002D300490405C43F69001C2F2000191F92D
:104DF000001042180020032107F078FD04990246B4
:104E00000598C37CCA54C07C0A5C114601F07AFA4A
:104E10003DE043F6E450C2F200000290C17C353020
:104E20000390405C43F69001C2F2000191F900103A
:104E300042180020042107F059FD02990246039808
:104E4000CB7CC254C97C405C01F0ACFB1FE043F654
:104E5000E450C2F20000019090F8300043F6900157
:104E6000C2F2000191F9001042180020042107F05D
:104E70003DFD0146019880F8301090F8300001F0B7
:104E800093F804E003E000208DF83700FFE79DF978
:104E900037000021009105F071FA009843F6900167
:104EA000C2F200010870FFE743F68900C2F2000079
:104EB000007818B1FFE707F0BFF902E005F0B4FE93
:104EC0000AE60EB080BD000080B58AB000208DF8E3
:104ED00027009DF92700012105F018FDFFE743F6A3
:104EE0008900C2F200004078B0B1FFE743F68901C3
:104EF000C2F20001002048709DF9270008B9FFE7C1
:104F0000EDE79DF8270001388DF827009DF927006F
:104F1000002105F0FBFCFFE743F68900C2F2000028
:104F20008078B8B1FFE743F68901C2F200010020A2
:104F300088709DF92700052801D1FFE7CFE79DF88C
:104F4000270001308DF827009DF92700002105F08A
:104F5000DDFCFFE743F68900C2F20000C07860B3D1
:104F6000FFE79DF9270001460891052814D8089904
:104F7000DFE801F003040506070F11E010E00FE081
:104F80000EE0FFF72FF89DF92700012105F0BEFC88
:104F900006E000F037FC03E000208DF82700FFE773
:104FA0009DF927000021079105F0B0FC079843F612
:104FB0008901C2F20001C870FFE743F69000C2F217
:104FC000000090F90000002800F07880FFE79DF9CC
:104FD00027000146069105285FD80699DFE801F011
:104FE00003172B3F5B5C43F6E450C2F200000590D0
:104FF000C07B43F69001C2F2000191F90010421803
:105000000020032107F072FC0599C87349E043F6BC
:10501000E450C2F200000490407B43F69001C2F2DB
:10502000000191F9001042180020012107F05EFCF8
:105030000499487335E043F6E450C2F2000003904F
:10504000807B43F69001C2F2000191F900104218F2
:1050500005203C2107F04AFC0399887321E043F6C0
:10506000E450C2F20000029090F9100043F6900163
:10507000C2F2000191F90010421809200A2107F03C
:1050800035FC014602980174007C40F25411C2F2D2
:105090000001887005E004E003E000208DF827009F
:1050A000FFE79DF927000021019105F02FFC0198F1
:1050B00043F69001C2F200010870FFE743F6890051
:1050C000C2F20000007818B1FFE707F0B5F802E07F
:1050D00005F0AAFD03E70AB080BD0000704700009C
:1050E000BFF34F8F4EF60C51CEF20001086800F46A
:1050F000E0600422C0F2FA5210430860BFF34F8F01
:10510000FFE7FEE77047000080B586B0059005997F
:1051100043F63430C2F200000390016002680021BF
:1051200004915180026811710068053020210191BD
:1051300009220092FCF76AFC009A01990398006822
:105140000E30FCF763FC01990398049A0368DA7542
:105150000068183041220292FCF758FC0199029A2B
:10516000039800685930FCF751FC039904980A68C9
:1051700082F89A000A6882F89B000A6882F89C000C
:105180000B68FF2283F89D200B6883F89E20096836
:10519000087043F2F470C2F2000006F0BBFA43F666
:1051A0001C00C2F2000006F0B5FA06B080BD000097
:1051B00080B588B043F63430C2F200000790026830
:1051C000002106915180026811710068053020218C
:1051D000049109220592FCF719FC0499059A079895
:1051E00000680E30FCF712FC069907980268D1752A
:1051F000026882F89A10006890F99B0000280ADC87
:10520000FFE743F63430C2F20000006890F99C00DA
:10521000012815DBFFE743F63430C2F200000190AD
:10522000006818302021029141220392FCF7EEFB26
:1052300001980299039A00685930FCF7E7FBFFE7F1
:1052400043F63430C2F200000268FF2182F89D105C
:10525000026882F89E1001680020087043F2F47022
:10526000C2F2000006F056FA43F61C00C2F200003B
:1052700006F050FA08B080BD7047000080B584B0D9
:1052800002900020019002980621FBF7E3FF01281D
:1052900003DBFFE70120039034E00298428843F2E9
:1052A000F470C2F20000032101AB06F03DFA8DF864
:1052B00003009DF8030018B1FFE70120039021E0EF
:1052C000019843F64401C2F200010968884216D0F1
:1052D000FFE7019843F64401C2F20001086001991A
:1052E00043F63430C2F2000002685180026811783F
:1052F00041F001011170016801200871FFE70020F1
:105300000390FFE7039804B080BD000080B582B031
:10531000019000218DF803100198808800F00300AF
:105320008DF803000198FBF795FF002818DCFFE7D4
:105330000198417A43F63430C2F2000002689DF8C9
:10534000033002EB430291730199098902689DF8C9
:10535000033002EB4302D173016800208875FFE738
:1053600000208DF80200FFE79DF8020007282FDCDF
:10537000FFE743F63430C2F2000000689DF80220D7
:105380001044807B43F64801C2F20001895C8842E8
:1053900017D0FFE743F63430C2F2000002681178FC
:1053A00041F00401117002680121D17500689DF877
:1053B00002201044807B43F64801C2F20001885469
:1053C000FFE7FFE79DF8020001308DF80200CBE710
:1053D00002B080BD80B58CB00B9000208DF82B0002
:1053E00009900B98808800F00F008DF82B000B9827
:1053F0008088C0F300100990099A43F61C00C2F29D
:105400000000022109AB06F08FF908B1FFE7BBE10C
:10541000099843F65001C2F200010978884221D070
:10542000FFE742F22610C0F6020014F091FC099842
:1054300043F65001C2F20001087043F63430C2F264
:105440000000069000681830202107914122089240
:10545000FCF7DCFA06980799089A00685930FCF7BF
:10546000D5FAFFE70020ADF828000B98FBF708FFFE
:10547000002840F00381FFE743F63430C2F2000019
:105480000168002081F89A000B980221FBF7E2FEE8
:10549000002875DCFFE70B98C07943F63431C2F27F
:1054A000000105910A6892F99A3003EB83131A44BC
:1054B0009DF82B3002EB830210760B98C0880968A8
:1054C00091F99A2002EB821211449DF82B2001EBF6
:1054D00082014876FAF748FE05990068096891F953
:1054E0009A2002EB821211449DF82B2001EB8201DD
:1054F000097E405C10F0BA0F07D0FFE79DF82B0043
:1055000080000130ADF82800FFE7FAF72DFE0068B3
:1055100043F63431C2F20001096891F99A2002EB96
:10552000821211449DF82B2001EB8201497E405CE0
:1055300010F0BA0F07D0FFE79DF82B008000023073
:10554000ADF82800FFE7BDF9280043F63431C2F278
:1055500000010491096891F99A20114491F99B1076
:105560000FF078FD01460498026892F99A301A44C7
:1055700082F89B100168087840F008000870FFE787
:105580000B980021FBF766FE002876DCFFE70B98FE
:10559000407A43F63431C2F2000103910A6892F96D
:1055A0009A3003EB83131A449DF82B3002EB8302ED
:1055B00090760B980089096891F99A2002EB821283
:1055C00011449DF82B2001EB8201C876FAF7CCFD3F
:1055D00003990068096891F99A2002EB821211443C
:1055E0009DF82B2001EB8201097E405C10F0BA0F80
:1055F00007D0FFE79DF82B0080000330ADF82800AE
:10560000FFE7FAF7B1FD006843F63431C2F200015A
:10561000096891F99A2002EB821211449DF82B201F
:1056200001EB8201497E405C10F0BA0F08D0FFE721
:105630009DF82B10042000EB8100ADF82800FFE757
:10564000BDF9280043F63431C2F200010291096825
:1056500091F99A20114491F99B100FF0FBFC01463F
:105660000298026892F99A301A4482F89B100168F5
:10567000087840F008000870FFE785E043F6343012
:10568000C2F200000168012081F89A000B98002105
:10569000FBF7E0FD002876DCFFE70B98407A43F645
:1056A0003431C2F2000101910A6892F99A3003EB99
:1056B00083131A449DF82B3002EB430210760B98AB
:1056C0000089096891F99A2002EB821211449DF831
:1056D0002B2001EB42014876FAF746FD019900685C
:1056E000096891F99A2002EB821211449DF82B204F
:1056F00001EB8201097E405C10F0BA0F07D0FFE792
:105700009DF82B0040000130ADF82800FFE7FAF7C4
:105710002BFD006843F63431C2F20001096891F9AB
:105720009A2002EB821211449DF82B2001EB82019A
:10573000497E405C10F0BA0F08D0FFE79DF82B10AF
:10574000022000EB4100ADF82800FFE7BDF928007A
:1057500043F63431C2F200010091096891F99A20B0
:10576000114491F99B100FF075FC014600980268F6
:1057700092F99A301A4482F89B100168087840F038
:1057800008000870FFE7FFE70CB080BD704700001D
:1057900080B54FF440700FF0BBFD13F077FF40F27F
:1057A000026010F045F840F2036010F041F840F25A
:1057B000046010F03DF840F2056010F039F84FF445
:1057C000C06010F035F840F2047010F031F840F28B
:1057D000057010F02DF840F2096010F029F807204C
:1057E0000FF0D4FE40F21D7010F022F840F2065087
:1057F00010F01EF840F20E6010F01AF8052006F0C6
:1058000023FA80BD80B58EB0002005908DF834005D
:105810000C908DF82F00ADF82C00ADF82A00ADF8F3
:10582000280043F6E451C2F2000106910A4612F83C
:10583000123FADF82630BDF8263002EB4302528805
:10584000ADF82420CA7C114491F821108DF8231062
:10585000ADF820008DF81F0043F67601C2F200017A
:105860000120087000F024FD05990698BDF8262057
:1058700040F2581CC2F2000C4FF4CA7302FB03C280
:105880005170C07C20B9FFE7032000F0C1FC03E0A9
:10589000062000F0BDFCFFE7BDF8260041F2F471E0
:1058A000C0F6020131F8102041F2EC71C0F602019D
:1058B00031F8101040F2581CC2F2000C4FF4CA73B9
:1058C00000FB03C04378EC460120CCF800001046F2
:1058D000FDF7A0F843F6E450C2F20000807C0328F4
:1058E00040F0CB80FFE743F6E450C2F20000407B7B
:1058F000002800F0C280FFE700208DF82F00FFE7AE
:105900009DF82F000D2800F3B780FFE79DF82F10BA
:1059100041F61400C0F6020030F82100ADF8200076
:105920000020ADF82C00FFE7BDF82C009DF82F30CB
:1059300041F61402C0F6020202EB8301498832F8F4
:105940002320891ABDF8263040F25412C2F2000218
:10595000D25C91FBF2F188426FDAFFE7BDF82000DC
:10596000022101F089FC07F047FE8DF81F009DF829
:105970001F00C007E0B1FFE7BDF82000BDF82630EA
:1059800040F25812C2F200024FF4CA7103FB012325
:1059900093F801C003EB4C039880BDF8260000FB90
:1059A000012148780130487000208DF81F00FFE782
:1059B00041F61401C0F602010888C98EBDF8202006
:1059C000BDF8263040F2581EC2F2000E4FF4CA7CD9
:1059D00003FB0CE35B78EE464FF0000CCEF800C002
:1059E000FDF718F8BDF82000BDF8262040F254114C
:1059F000C2F20001895C0844ADF8200043F689003A
:105A0000C2F20000007880B9FFE7BDF8262040F21E
:105A10005811C2F200014FF4CA7302FB03105A433B
:105A20004078895C884201D1FFE706E0FFE7BDF8D6
:105A30002C000130ADF82C0076E743F68900C2F265
:105A40000000007880B9FFE7BDF8262040F2581129
:105A5000C2F200014FF4CA7302FB03105A434078AC
:105A6000895C884201D1FFE706E0FFE79DF82F003F
:105A700001308DF82F0043E7D2E0BDF82600A0B931
:105A8000FFE743F6E451C2F20001CA7B41F604008D
:105A9000C0F6020030F82220ADF82A20C97B00EBC6
:105AA00081004088ADF828002BE0BDF826000228D0
:105AB00011D1FFE740F25410C2F2000080780A28AA
:105AC00009D1FFE740F21220ADF82A0040F2AE60A3
:105AD000ADF8280014E0BDF8261041F2F470C0F6CD
